:020000040000FA
:1000000050450020190500002105000023050000CF
:10001000250500002705000029050000000000005C
:100020000000000000000000000000002B050000A0
:100030002D050000000000002F0500003105000024
:100040003305000033050000D10D0000490B00000E
:1000500033050000330500003305000033050000C0
:1000600033050000330500003305000033050000B0
:1000700033050000330500003305000033050000A0
:100080003305000033050000330500003305000090
:100090003305000033050000330500003305000080
:1000A0003305000033050000330500003305000070
:1000B00033050000330500000000000000000000D0
:1000C0003305000033050000330500003305000050
:1000D0003305000033050000330500000000000078
:1000E0000000000000000000000000000000000010
:1000F0000000000000000000000000000000000000
:1001000000000000000000000000000000000000EF
:1001100000000000000000000000000000000000DF
:1004000000F002F800F03CF80AA090E8000C8244EA
:100410008344AAF10107DA4501D100F031F8AFF2C7
:10042000090EBAE80F0013F0010F18BFFB1A43F0D2
:100430000103184790120000B0120000103A24BFC8
:1004400078C878C1FAD8520724BF30C830C144BF39
:1004500004680C607047000000230024002500267B
:10046000103A28BF78C1FBD8520728BF30C148BF17
:100470000B6070471FB501F0FDF81FBD10B510BD32
:1004800000F0E6F81146FFF7F5FF00F0CFFD00F0B1
:1004900004F903B4FFF7F2FF03BC00F092FD000083
:1004A000401E00BF00BF00BF00BF00BF00BF00BFB5
:1004B00000BF00BF00BF00BF00BF00BF00BF00BF44
:1004C00000BF00BF00BF00BF00BF00BF00BF00BF34
:1004D00000BF00BF00BF00BF00BF00BF00BF00BF24
:1004E00000BF00BF00BF00BF00BF00BF00BF00BF14
:1004F00000BF00BF00BF00BF00BF00BF00BF00BF04
:1005000000BF00BF00BF00BF00BF00BF00BF00BFF3
:1005100000BFC5D17047000009488047094800471F
:10052000FEE7FEE7FEE7FEE7FEE7FEE7FEE7FEE7A3
:10053000FEE7FEE704480549054A064B7047000000
:10054000CD0B0000010400005005002050450020A4
:1005500050250020502500207047032A40F23080AB
:1005600010F0030C00F0158011F8013BBCF1020FF4
:10057000624498BF11F801CB00F8013B38BF11F875
:10058000013BA2F1040298BF00F801CB38BF00F88C
:10059000013B11F0030300F02580083AC0F0088009
:1005A00051F8043B083A51F804CBA0E80810F5E7ED
:1005B000121D5CBF51F8043B40F8043BAFF30080D0
:1005C000D20724BF11F8013B11F801CB48BF11F845
:1005D000012B24BF00F8013B00F801CB48BF00F815
:1005E000012B704710B5203AC0F00B80B1E81850CD
:1005F000203AA0E81850B1E81850A0E81850BFF40D
:10060000F5AF5FEA027C24BFB1E81850A0E81850AB
:1006100044BF18C918C0BDE810405FEA827C24BFFF
:1006200051F8043B40F8043B08BF7047D20728BF8D
:1006300031F8023B48BF11F8012B28BF20F8023BDC
:1006400048BF00F8012B70477047704770477047EC
:10065000754600F02BF8AE4605006946534620F07B
:100660000700854618B020B5FFF764FFBDE82040BD
:100670004FF000064FF000074FF000084FF0000B5E
:1006800021F00701AC46ACE8C009ACE8C009ACE811
:10069000C009ACE8C0098D46704710B50446AFF3F9
:1006A00000802046BDE81040FFF7F3BE00487047C9
:1006B000F0040020F8B50E4C00250646A570012078
:1006C00000F0DCFC0120607025700A48067020787C
:1006D000084B009062780A330649074800F08AFD0B
:1006E00008B100F081FCA0780028FCD0F8BD000023
:1006F00078000020D0040020A016000010B51B20B8
:1007000000F000FE1C2000F0EDFD0A2000F0B6FC19
:100710001C2000F0F7FD0A2000F0B0FC1C2000F0C7
:10072000E1FD0A2000F0AAFC1C2000F0EBFD0A20ED
:1007300000F0A4FC1B2000F0D5FD1120FFF7BAFF4C
:10074000012008E0002000F06FF804461DA1002001
:1007500000F024F90A2000F091FC732CF2D1A021C2
:10076000022000F087F80A2000F088FC0021012018
:1007700000F080F81021032000F07CF840210420D4
:1007800000F078F86021052000F074F82C21062094
:1007900000F070F80021072000F06CF8F221092029
:1007A00000F068F803210A2000F064F8012000F04E
:1007B00065FC1020FFF77EFFBDE810401B2000F015
:1007C000A1BD000063616E27742066696E642064B9
:1007D0006576696365210D0A0000000038B50F4C8D
:1007E0000020A07009200E4B00900022A3F10A0106
:1007F0000C4800F0FFFC08B100F0F6FBA0780028E0
:10080000FCD0074A002002F10A01135C0B54401C83
:100810000928FADB02480A3038BD000078000020C1
:10082000DA040020A016000038B50F4C0021A1709A
:10083000022262700122227040F020020B480270F6
:1008400041702078094B009062780A3307490848C4
:1008500000F0D0FC08B100F0C7FBA0780028FCD065
:1008600002480A30007838BD78000020D00400200B
:10087000A016000038B501F087020C2821D2DFE86D
:1008800000F02006080D2020201215181B1E11460E
:1008900017E001F0FB0141F0800112E001F0FD01E1
:1008A00041F010010DE001F03F010AE001F05F01AD
:1008B00007E041F0020104E042F0010101E001F033
:1008C0000F010E4C40F040030020A0700322627024
:1008D00020700B4A137050709170207802F10A0357
:1008E000009062780649074800F084FC08B100F0E7
:1008F0007BFBA0780028FCD038BD000078000020E9
:10090000D0040020A01600002DE9F041884600EB3D
:1009100040012148164600EBC104E16A01F00300E2
:1009200002280BD0A06A626A801A401E01D5226A92
:100930001044864202DD89072BD006464EB30027BD
:10094000A06A616A451A6D1E01D5206A0544D4E982
:100950000801411AA94201DC616A451AB54200DB6F
:100960003546616AE0692A4608444146FFF7F5FDCD
:10097000606A2F44A844761B28446062606A216A3A
:10098000884201D100206062002ED9D13846BDE8EE
:10099000F0810020FBE70000000000200FB408B544
:1009A00004A900916A46039900F004F801B05DF8CB
:1009B00014FB00002DE9F04198B0064607A802900C
:1009C00040200025CDE90305CDE9055690460C46AB
:1009D00014F8011B002971D0252908D002A800F0C5
:1009E000D1FA05980028F3DA18B0BDE8F0810020AC
:1009F000217823291BD02B2916D02D290ED0302960
:100A00000FD000222178A1F130030A2B13D202EB80
:100A1000820201EB4202303A641CF3E740F001002D
:100A200007E040F0020004E040F0040001E040F084
:100A30000800641CDCE70023CFB22E2F0CD100BFCE
:100A400014F8011FA1F130070A2F05D203EB83032D
:100A500001EB4303303BF3E76C290DD068290BD041
:100A6000702954D00BDC252916D0582931D06329A0
:100A70000CD0642913D114E014F8011BECE773299E
:100A800034D075291BD0782909D122E0D8F800008C
:100A9000011DC8F80010017802A800F073FA641C68
:100AA0009FE7D8F800100F1DC8F800700968CDE95D
:100AB00000200A2202A800F095F9F0E733E0D8F808
:100AC00000100F1DC8F800700968CDE900200A2247
:100AD00008E0D8F800100F1DC8F800700968CDE9CB
:100AE0000020102202A800F0DFF9D8E7D8F80000B3
:100AF000011DC8F80010076817F8011B0029CED0A7
:100B000002A800F03FFA05980028F5DAC7E7D8F800
:100B10000000011DC8F8001001680820CDE900059B
:100B200003461022DEE7059800287FF75DAF0498A2
:100B300020B1024607A93046FFF7E6FEDDE90401D1
:100B40000844059050E7000070B50C480A4C002599
:100B5000C0F80851214600F052FC00280BD1A07EBD
:100B6000FF2801D000F0C6FB65762571201D2168A5
:100B7000BDE87040084770BDA00000200030004074
:100B80001FB5104AD2E902015269CDE90001039272
:100B900001208DF80C008006029016208DF80300CD
:100BA000094A6946074800F093FA08B100F01CFAB8
:100BB000C82000F063FA1B2000F094FB1C2000F01A
:100BC000A1FB1FBDA01600008513000070B576487C
:100BD0000023021D0178101D0125062907D1147874
:100BE000240704D10478C4F30314032C02D006298B
:100BF00004D00FE06E4E6D4C74670EE0147824073D
:100C000008D10478C4F30314032C06D0042C04D0B8
:100C1000052C02D0062909D010E04FF08054D4F8FA
:100C20004442644EC4F34234346002E01478240732
:100C300004D10478C4F30314032C02D0062906D08F
:100C400011E05D4C266826F0807626600EE0147870
:100C5000240708D10478C4F30314032C06D0042C11
:100C600004D0052C02D006290AD011E04FF08044B0
:100C7000C4F80C31C4F810314E4C241F236002E03C
:100C80001478240704D10478C4F30314032C02D08D
:100C9000062905D00CE0474A0321643211600AE0BE
:100CA0001478240704D10478C4F30314032C02D06D
:100CB00006290DD06AE0414A052111603F4978318B
:100CC0000D603E4908310B603F21121D116002E0AA
:100CD000117809075AD10078C0F30310052855D1BF
:100CE00037480068374908603548001D0068091D0D
:100CF0000860334808300068091D086030480C302F
:100D00000068091D08602E4810300068091D086041
:100D10002B4814300068091D086029481830006805
:100D200028492031086026481C300068091D0860E9
:100D3000234820300068091D0860214824300068DD
:100D4000091D08601E4828300068091D08601C48FD
:100D50002C300068091D08601948303000681949B6
:100D600040310860164834300068091D0860144896
:100D700038300068091D086011483C300068091DC2
:100D800008600F4840300068091D08600A48743840
:100D9000016841F470010160BFF34F8FBFF36F8FA3
:100DA0000A490948086070BDE00F00F00DF0ADBAC7
:100DB00000C007403C050040FCED00E0105600403C
:100DC0000404001020C500400090D0037C000020E7
:100DD0000348007F08B100F0E1BB00F05BBB0000FE
:100DE000800000202DE9FC5F0E008146DDE90C4704
:100DF000C6F1000098469346824600D40846012575
:100E000003E000BFB0FBFBF06D1C5845FAD2A845CB
:100E100000D9454624B1002E01DB780700D5641EB9
:100E2000B80702D5B8F1000F10D0F8070ED16CB199
:100E30002046641EA84209D92021484600F0A2F8A5
:100E4000D9F80C000028F2DABDE8FC9F002E02DA87
:100E500056462D2102E0780707D52B21484600F0A1
:100E600091F8D9F80C000028EEDB07F00300022807
:100E700010D1B8F1000F0DD164B12046641EA84214
:100E800008D93021484600F07DF8D9F80C00002838
:100E9000F2DAD9E7CDE9004743465A46314648469B
:100EA00000F002F8D0E700002DE9F84F8246DDE9B6
:100EB0000A4B0126984691460D460846374602E001
:100EC000B0FBF9F07F1C4845FAD2B84500D9474637
:100ED0005FEACB701CD1DCB15FEA8B7002D5B8F150
:100EE000000F02D0202000900AE03020FBE750469F
:100EF000009900F047F8DAF80C0000283EDB3CB11E
:100F00002046641EB842F2D802E000BF06FB09F694
:100F1000B5FBF6F1494501D3012100E0002142462D
:100F2000A8F10108012A01DD012000E000200143B1
:100F3000ECD1DFF84C8000BFB5FBF6F000FB165596
:100F400018F80010504600F01DF8DAF80C000028E0
:100F500003DBB6FBF9F6002EEED15FEACB700DD0C5
:100F6000002C0BD02046641EB84207D920215046E1
:100F700000F008F8DAF80C000028F1DABDE8F88F84
:100F80009016000010B50446D4E90130421C93428B
:100F900005DB23681954A260E068401CE060D4E9D6
:100FA0000102824209D121682069FFF7ADFCA168E6
:100FB000884203D04FF0FF30E06010BD0020A060F9
:100FC00010BDFEE7BFF34F8F05480168054A01F4E5
:100FD000E06111430160BFF34F8F00BFFDE70000E8
:100FE0000CED00E00400FA050EB500210091CDE9FA
:100FF00001106A4644F20100FFF7E4FF0EBD000055
:101000008179C2790904007A41EA02210143080288
:1010100082B000120090024602A1002002B0FFF749
:10102000BDBC000025640D0A0000000086B0FFF77B
:10103000A7FD00211720032300910A46019100F02B
:101040001BF91B2000F03AF91C2000F037F9FFF7DC
:1010500055FB094D02AC2868C00D10F0010FFAD104
:10106000FFF7BCFB0021425C6254491C0929FADBF2
:1010700002A8FFF7C5FFEEE71005005031B540F2BA
:10108000E73404E0401E00902046FFF709FA00987C
:101090000028F7D138BD4907090E002806DA00F00C
:1010A0000F0202F1E02282F8141D03E000F1E022B9
:1010B00082F8001400F01F020121914040098000D5
:1010C00000F1E020C0F88012C0F800117047000065
:1010D0002DE9FC5F07464079DFF80CA10C460AEBCE
:1010E0004016317E11B10820BDE8FC9F14B93F497C
:1010F00001EB00143260207B01250128DFF8F0B0FD
:10110000207804D805FA00F0CBF8000001E000F0E8
:10111000F1F82178A946890001F1A041C1F80057F2
:1011200065784FF0FF38FF2D07D009FA05F0CBF8AE
:101130000000284600F0CCF800E04546A0784FF0CB
:10114000000BFF2809D0002280465B46CDF800B096
:101150001146CDF804B000F0A0F8E078FF2804D0E4
:1011600000F0C8F8E07800F0B3F87979E0780AEB9D
:101170004111887638682378C0F80835C0F80C55D6
:10118000C0F81085A168C0F82415237B617B01B1EC
:101190000121012B04D0022B05D0032B08D105E03F
:1011A00041F0020104E041F0040101E041F00601D8
:1011B000C0F854157B7961790AEB4312D176316816
:1011C00011B10421C0F804134D46C0F800953068F1
:1011D00020B1217997F90400FFF75DFF86F819B077
:1011E0003576002080E70000A00000208016000077
:1011F0000C0500501FB5069C00918DF80420029349
:101200008DF80C400022694600F002F804B010BDD1
:101210002DE9F04113460C464179154A02EB411184
:101220004A7E12B11120BDE8F0810A6801251AB189
:1012300013F0140F00D14D7694E8C41001F10808A2
:1012400088E8C4104A7F22F003024A778A7EFF2A88
:1012500002D09540074A15601BB100204876062051
:10126000E1E70068224600F093F80020DBE7000089
:10127000A00000200C05005030B541EA4201DDE934
:10128000034541EA8301800041EA042100F1A040C6
:1012900041EA0541C0F8001730BD30B541EA4201CE
:1012A000DDE9034541EA8301800041EA042100F1C0
:1012B000A04041EA0541C0F8001730BD1CB500212F
:1012C00000910B46012201911146FFF7D5FF1CBD8D
:1012D0001CB5002100910B46012201911146FFF738
:1012E000DCFF1CBD01218140014801607047000006
:1012F0000C05005001218140014801607047000049
:10130000080500500121814001480160704700003C
:10131000080500504058002800D001207047D0F840
:101320000403084000D0012070474058002800D036
:101330000120704709480A490022C37DC1F80821ED
:1013400043B1D1F81815437EC268D154417E491C7F
:1013500041767047D1F818057047000080000020E2
:10136000002000401FB501228DF8080004488DF8C8
:1013700000200191D0E90012684690471FBD00008F
:10138000800000200149012088707047780000200B
:1013900070B5002604460E7704200D46C4F80803F5
:1013A000C4F80861107910B11068007800E0E87E98
:1013B000C4F81C051079012802D91068407803E0B0
:1013C000107B012802D9E87EC4F81C05286818B1F2
:1013D0000420C4F8040370BDD4F808010028FBD031
:1013E000C4F808612946204600F009F80028F3D126
:1013F000A87EFF28EFD0BDE87040FFF77BBF38B56F
:10140000D0F818258DF800200A7F0B7D9A4203D270
:101410009DF800300C69A3540A7F521CD3B20B779D
:101420000C7B5A1C944202D98968895C03E00D7DCB
:10143000954203D9C97EC0F81C1503E0A34201D32D
:10144000AB4201D2012038BD002038BD064A002041
:10145000C2F81C010548838A8168C95C838A5B1CC9
:101460008382C2F81C1570470020004080000020D5
:101470001FB500218DF8080005488DF8001082681E
:1014800001928175D0E90012684690471FBD0000A7
:10149000800000202DE9FF413E4D4FF400712846A9
:1014A000FFF73DFF01273C4C4FF40178002600B3C5
:1014B0004FF492712846FFF72DFFD0B1C5F8246193
:1014C000C5F80883A07E00B96F6002208DF8000087
:1014D000D5F88004C5F880040390E07D8DF80800FD
:1014E000E0680190E6752676D4E9001268469047D8
:1014F00024E004212846FFF712FFF8B14FF484716D
:101500002846FFF707FFC8B1FFF714FFE07D617EB3
:10151000884213D1227E3AB1607EE168E275226989
:10152000E2602676667607E0A07E00B96F60C5F8B7
:101530000883E675607EE168FFF714FF4FF48E7153
:101540002846FFF7E7FE58B1A18AA07D814202D26A
:10155000FFF77CFF04E0C5F81C6108B1FFF788FFC6
:101560004FF4A2712846FFF7D5FE00280FD0C5F82A
:101570004461A07E00B12F60E07D002807D0E675B1
:10158000607EE16804B0BDE8F041FFF7EBBEBDE866
:10159000FF81000000200040800000207FB5334C18
:1015A0004FF492712046FFF7C0FE314D0026B0B1D6
:1015B000C4F8246102208DF80000D4F88004C4F837
:1015C00080040390D4F83C058DF80800E868019089
:1015D000EE752E76D5E90012684690471FE04FF46D
:1015E00088712046FFF7A1FEC8B1C4F81061D4F895
:1015F0003C05E97DC0B2814211D12A7E5AB1E96829
:10160000D4F8003223F02003C4F80032EA752A69C6
:10161000EA602E7601E0EE75E968FFF7A3FE4FF46D
:10162000A2712046FFF781FE50B1C4F84461E87D05
:1016300030B1EE75D4F83C05E968C0B2FFF792FE10
:101640004FF490712046FFF770FE00280CD0C4F8CC
:101650002061A87D002807D0D4F84C0504B0C0B2A2
:10166000BDE87040FFF704BF7FBD000000200040D0
:10167000800000204FF04070E1EE100A704700003B
:101680001A1918FF06FF0000000000080000000003
:1016900030313233343536373839414243444546A8
:1016A00000300040030000001A1918FF06FF000078
:1016B00000000008000000005465726D696E616CE6
:1016C00000000000E4160000000000208000000080
:1016D0003C0400006417000080000020D04400009B
:1016E00058040000534547474552205254540000C7
:1016F000000000000200000002000000B816000018
:10170000C0000020000400000000000000000000F5
:1017100000000000000000000000000000000000C9
:10172000000000000000000000000000B8160000EB
:10173000C0040020100000000000000000000000B5
:101740000000000000000000000000000000000099
:101750000000000000000000000000000000000089
:041760000090D00322
:0400000500000401F2
:00000001FF
