:020000040000FA
:100000007045002091050000990500009B05000047
:100010009D0500009F050000A105000000000000F4
:10002000000000000000000000000000A305000028
:10003000A505000000000000A7050000A9050000BC
:10004000AB050000AB050000ED0D0000AB050000A6
:10005000AB050000AB050000AB0500002D0700005C
:10006000AB050000BD0D0000D50D0000AB05000084
:10007000AB050000AB050000AB050000AB050000C0
:10008000AB050000AB050000AB050000AB050000B0
:10009000AB050000AB050000AB050000AB050000A0
:1000A000AB050000AB050000AB050000AB05000090
:1000B000AB050000AB0500000000000000000000E0
:1000C000AB050000AB050000AB050000AB05000070
:1000D000AB050000AB050000AB0500000000000010
:1000E0000000000000000000000000000000000010
:1000F0000000000000000000000000000000000000
:1001000000000000000000000000000000000000EF
:1001100000000000000000000000000000000000DF
:1004000000F002F800F03CF80AA090E8000C8244EA
:100410008344AAF10107DA4501D100F031F8AFF2C7
:10042000090EBAE80F0013F0010F18BFFB1A43F0D2
:1004300001031847781D0000981D0000103A24BFE2
:1004400078C878C1FAD8520724BF30C830C144BF39
:1004500004680C607047000000230024002500267B
:10046000103A28BF78C1FBD8520728BF30C148BF17
:100470000B6070471FB501F06FFE1FBD10B510BDBA
:1004800000F022F91146FFF7F5FF00F009FF00F038
:1004900040F903B4FFF7F2FF03BC00F0D4FD000005
:1004A000401E00BF00BF00BF00BF00BF00BF00BFB5
:1004B00000BF00BF00BF00BF00BF00BF00BF00BF44
:1004C00000BF00BF00BF00BF00BF00BF00BF00BF34
:1004D00000BF00BF00BF00BF00BF00BF00BF00BF24
:1004E00000BF00BF00BF00BF00BF00BF00BF00BF14
:1004F00000BF00BF00BF00BF00BF00BF00BF00BF04
:1005000000BF00BF00BF00BF00BF00BF00BF00BFF3
:1005100000BFC5D170470000401E00BF00BF00BF34
:1005200000BF00BF00BF00BF00BF00BF00BF00BFD3
:1005300000BF00BF00BF00BF00BF00BF00BF00BFC3
:1005400000BF00BF00BF00BF00BF00BF00BF00BFB3
:1005500000BF00BF00BF00BF00BF00BF00BF00BFA3
:1005600000BF00BF00BF00BF00BF00BF00BF00BF93
:1005700000BF00BF00BF00BF00BF00BF00BF00BF83
:1005800000BF00BF00BF00BF00BFC5D17047000063
:100590000948804709480047FEE7FEE7FEE7FEE717
:1005A000FEE7FEE7FEE7FEE7FEE7FEE70448054953
:1005B000054A064B70470000310C000001040000A2
:1005C0007005002070450020702500207025002057
:1005D0007047032A40F2308010F0030C00F01580C1
:1005E00011F8013BBCF1020F624498BF11F801CB36
:1005F00000F8013B38BF11F8013BA2F1040298BF9B
:1006000000F801CB38BF00F8013B11F0030300F004
:100610002580083AC0F0088051F8043B083A51F8A8
:1006200004CBA0E80810F5E7121D5CBF51F8043BAD
:1006300040F8043BAFF30080D20724BF11F8013B20
:1006400011F801CB48BF11F8012B24BF00F8013B82
:1006500000F801CB48BF00F8012B704710B5203AD5
:10066000C0F00B80B1E81850203AA0E81850B1E86B
:100670001850A0E81850BFF4F5AF5FEA027C24BF21
:10068000B1E81850A0E8185044BF18C918C0BDE818
:1006900010405FEA827C24BF51F8043B40F8043BE1
:1006A00008BF7047D20728BF31F8023B48BF11F896
:1006B000012B28BF20F8023B48BF00F8012B7047F0
:1006C0007047704770477047754600F02BF8AE468C
:1006D00005006946534620F00700854618B020B54E
:1006E000FFF764FFBDE820404FF000064FF0000721
:1006F0004FF000084FF0000B21F00701AC46ACE8CA
:10070000C009ACE8C009ACE8C009ACE8C0098D4636
:10071000704710B50446AFF300802046BDE8104096
:10072000FFF7B7BE004870470C050020FEB54FF438
:10073000827001F087F838B34FF4827001F08CF8C2
:1007400000208DF800002D484068019000BF2C4823
:10075000006880B2ADF808002848C06820B90020C1
:10076000264981F827000AE02448C06823494860E8
:100770000846808A08810020C86001F07FF81F4881
:1007800001686846884700BF4FF48A7001F05AF844
:1007900040B14FF48A7001F05FF80020174981F8EA
:1007A00027002AE01548056924E0B5FA85F64FF0E0
:1007B0000040F0408543B00000F58C74204601F005
:1007C00041F8B8B1204601F047F801208DF800004B
:1007D000A4F58C70C0F3C7008DF80400A4F58C70EC
:1007E000012121EA90018DF805100448016868464E
:1007F000884700BF002DD8D100BFFEBDE004002017
:10080000347600402DE9F04104460D4616461F4659
:10081000DDF8188000F0F6FA19480069A0422CD9DA
:1008200004B304EB44011648183040F8315004EB8F
:10083000440100EBC100466004EB4401104818304D
:1008400000EBC1008760002104EB44020C48183023
:1008500000EBC200016104EB44020948183000EBD0
:10086000C200C16004EB44010548183000EBC10030
:10087000C0F814800020BDE8F0814FF0FF30FAE7A7
:10088000180000202DE9F04704468946164600F07E
:10089000B9FA04EB4401564800EBC100007D00F0BA
:1008A0000300022827D004EB4401514800EBC100AB
:1008B000D0F8108004EB44014D4800EBC100C06843
:1008C000A8EB0000451E002D06DA04EB4401484861
:1008D00000EBC10080680544AE420CDD04EB44012E
:1008E000434800EBC100007D00F0030010B9002078
:1008F000BDE8F0872E460EB90020F9E7002700BFBB
:1009000004EB44013A4800EBC100D0F8108004EB3E
:100910004401374800EBC100C068A8EB0000451E49
:10092000002D06DA04EB4401314800EBC100806879
:10093000054404EB44012E4800EBC10004EB4402E3
:1009400081682B4800EBC200C068081AA84201DD8C
:1009500028460CE004EB4401254800EBC10004EB01
:1009600044028168224800EBC200C068081A0546AC
:10097000B54201DA284600E03046054604EB440261
:100980001B4901EBC20104EB44034A68184901EB1F
:10099000C301C96850182A464946FFF71AFE2F447A
:1009A000A944761B04EB4401114800EBC100C06868
:1009B000411904EB44020E4800EBC200C16004EB95
:1009C00044010B4800EBC100C16804EB4402084835
:1009D00000EBC2008068814206D1002104EB440292
:1009E000034800EBC200C160002E89D138467FE782
:1009F0003000002070B505460C46204600F014FB80
:100A00000646324621462846FFF73CFF70BD0FB42C
:100A100038B5044606A800906A462046059900F0BD
:100A200003F838BC5DF814FB2DE9F04F99B081460E
:100A30000D46144603A814904020159000201690EF
:100A4000CDF86090179000BF15F8016B06B9D4E09F
:100A5000252E73D1002700BF2E78232E12D02B2EE7
:100A60000CD02D2E02D0302E10D103E047F001071C
:100A70006D1C0CE047F002076D1C08E047F004070E
:100A80006D1C04E047F008076D1C00E001E000BFAA
:100A9000E2E74FF0000800BF2E78302E01DB392E40
:100AA00000DD07E06D1CA6F1300008EB880100EBCB
:100AB0004108F1E700BF002013902E782E2E12D1AE
:100AC0006D1C00BF2E78302E01DB392E00DD09E0D1
:100AD0006D1CA6F13000139901EB810100EB410080
:100AE0001390EFE700BF2E7800BF6C2E01D0682E68
:100AF00002D115F8016B00E000E0F6E700BF702EB0
:100B00005BD008DC252E68D0582E35D0632E09D056
:100B1000642E67D113E0732E3CD0752E1DD0782E35
:100B200060D128E02168081D2060D1F800A00AF0FB
:100B3000FF0B594614A800F055FA53E055E0216820
:100B4000081D2060D1F800A0CDE900870A22514697
:100B500014A8139B00F057F944E02168081D206099
:100B6000D1F800A0CDE900870A22514614A8139BB2
:100B700000F0BEF936E000BF2168081D2060D1F802
:100B800000A0CDE900871022514614A8139B00F065
:100B9000AFF927E02168081D2060D1F800B000BF40
:100BA0001BF8016B06B906E0314614A800F01AFAEA
:100BB00017980028F4DA00BF14E02168081D2060AF
:100BC000D1F800A0002008210B461022CDE900102A
:100BD000514614A800F08CF904E0252114A800F077
:100BE00001FA00BF00BF6D1C03E0314614A800F0FD
:100BF000F9F917980028BFF627AF00BF179800280B
:100C00000ADD169820B103A94846169AFFF73AFE66
:100C1000DDE9161008441790179819B0BDE8F08F59
:100C200001480249086070470090D00394000020FA
:100C300010B500F03BFA10B157485849486700F02A
:100C40004DFA28B156480068C0F342305549086053
:100C500000F06EFA28B15448006820F080705249C4
:100C6000086000F07DFA48B10020504908604FF05C
:100C70008041C1F810014B49091F086000F09AFA41
:100C800018B1032047496431086000F0ABFA68B13D
:100C90000520474908600120454978310860002057
:100CA0004349083108603F20091F086000F0B2FA8C
:100CB000002855D03F4800683F4908603D48001D66
:100CC0000068091D08603B4808300068091D08607D
:100CD00038480C300068091D08603648103000683C
:100CE000091D0860334814300068091D0860314848
:100CF000183000683049203108602E481C300068E8
:100D0000091D08602B4820300068091D086029482B
:100D100024300068091D0860264828300068091D35
:100D2000086024482C300068091D086021483030D4
:100D300000682149403108601E4834300068091DB0
:100D400008601C4838300068091D086019483C30AC
:100D50000068091D0860174840300068091D0860D8
:100D600011487438006840F470000F497439086005
:100D700000BF00BF00BFBFF34F8F00BF00BF00BF69
:100D800000BF00BF00BFBFF36F8F00BF00BF00BF39
:100D9000FFF746FF10BD00000DF0ADBA00C00740E0
:100DA000440200103C050040FCED00E00C01004056
:100DB000105600400404001020C5004010B5042265
:100DC0000249034800F03EFA10BD0000C8040020AC
:100DD0000090004010B504220249034800F032FAA6
:100DE00010BD0000D404002000A0004010B504484D
:100DF000007F10B101F01AF901E001F067F810BDB1
:100E00009800002070472DE9FC5F07460E46924689
:100E10009846DDE90C45002E01DA704200E03046CC
:100E200083464FF0010903E0BBFBFAFB09F101091E
:100E3000D345F9D2C84500D9C14634B1002E03DBF1
:100E400005F00400042800D1641E05F0020010B172
:100E5000B8F1000F12D005F0010078B974B108E0C4
:100E60002021384600F0BEF8F868002801DABDE815
:100E7000FC9F1CB12046641E4845F1D8002E08DABC
:100E800076422D21384600F0ADF8F86800280CDADB
:100E9000EDE705F00400042807D12B21384600F0C7
:100EA000A1F8F868002800DAE1E705F0020002285E
:100EB00014D105F0010088B9B8F1000F0ED16CB162
:100EC00007E03021384600F08DF8F868002800DA95
:100ED000CDE71CB12046641E4845F2D84346524631
:100EE00031463846CDE9004500F002F800BFBEE7C4
:100EF0002DE9FE4F81460F4614469846DDE90C5B0E
:100F000001260197B24605E00198B0FBF4F001908C
:100F10000AF1010A0198A042F6D2D04500D9C24692
:100F20000BF00100E0B9DDB10BF00200022805D1A1
:100F3000B8F1000F02D13020009001E02020009095
:100F400009E04846009900F04DF8D9F80C00002857
:100F500001DABDE8FE8F1DB128466D1E5045F0D860
:100F600000E06643B7FBF6F0A04201D3012000E0A9
:100F700000204146A8F10108012901DD012100E01E
:100F8000002108430028ECD100BFB7FBF6F0029027
:100F9000029800FB1677124A0298115C484600F04E
:100FA00021F8D9F80C00002800DA03E0B6FBF4F6CB
:100FB000002EEAD100BF0BF0010078B175B108E056
:100FC0002021484600F00EF8D9F80C00002800DA7D
:100FD000BFE71DB128466D1E5045F1D800BFB8E7E8
:100FE0007C21000070B504460E46A568681C616847
:100FF000814206DB20684655681CA060E068401C02
:10100000E060D4E9011088420DD1A268216820690E
:10101000FFF738FCA168884203D04FF0FF30E06052
:1010200001E00020A06070BD0146002209B9002047
:10103000704700BF087800B902E0521C491CF9E76C
:1010400000BF1046F4E700BFFEE7000000BF00BF8E
:1010500000BF00BF00BFBFF34F8F00BF00BF00BF86
:101060000948006800F4E06008490843001D06498B
:10107000086000BF00BF00BFBFF34F8F00BF00BFBD
:1010800000BF00BF00BFFDE70CED00E00000FA0567
:101090003EB50446002000900190029002946A46FA
:1010A000002144F20100FFF7D1FF3EBD0A4800785D
:1010B00006280ED10848001D007800F00F0040B946
:1010C00005480830007800F0F000302801D10120F8
:1010D00070470020FCE70000E00F00F013480078A4
:1010E000062820D11148001D007800F00F00D0B96B
:1010F0000E480830007800F0F000302801D10120BF
:1011000070470A480830007800F0F000402801D10C
:101110000120F5E705480830007800F0F00050287D
:1011200001D10120ECE70020EAE70000E00F00F029
:101130000A48007806280ED10848001D007800F003
:101140000F0040B905480830007800F0F000302862
:1011500001D1012070470020FCE70000E00F00F003
:1011600013480078062820D11148001D007800F0AF
:101170000F00D0B90E480830007800F0F000302899
:1011800001D1012070470A480830007800F0F000D3
:10119000402801D10120F5E705480830007800F02B
:1011A000F000502801D10120ECE70020EAE7000020
:1011B000E00F00F00A48007806280ED10848001D0C
:1011C000007800F00F0040B905480830007800F0C2
:1011D000F000302801D1012070470020FCE700001A
:1011E000E00F00F00A48007806280ED10848001DDC
:1011F000007800F00F0040B905480830007800F092
:10120000F000302801D1012070470020FCE70000E9
:10121000E00F00F00A48007806280ED10848001DAB
:10122000007800F00F0040B905480830007800F061
:10123000F000502801D1012070470020FCE7000099
:10124000E00F00F02DE9F04704460E4690460027D7
:1012500022E0384600F018FB0546384600F01BFB3C
:1012600081462046294642580AB1012200E0002268
:1012700082B14846D4F80413014009B1012100E0CD
:10128000002139B12946204600F00AFB2846D6E95C
:1012900000219047781CC7B24745DADBBDE8F087EC
:1012A00008B500F0B7FC00F09BFB002003460246A7
:1012B00001460090FFF7A6FA4FF4FA6000F0BEF87E
:1012C00007E00AA10020FFF795FB4FF4FA7000F049
:1012D000B5F8572000F016F80028F2D000F058F8C2
:1012E00000F0C4FB00E030BFFDE700006D61783323
:1012F0003031303220696E6974206661696C6564D2
:101300000D0A000070B50446012540F20C611E482C
:1013100001606006000E1D4908704021092000F0A0
:101320007BF84021092000F077F8C021022000F06E
:1013300073F80021032000F06FF80021042000F072
:101340006BF80021052000F067F80021062000F06E
:1013500063F80F21082000F05FF80321092000F056
:101360005BF827210A2000F057F830210C2000F00C
:1013700053F830210D2000F04FF87F21102000F0AD
:101380004BF8284670BD0000680700509000002010
:10139000FEB5124903C9CDE90101114A002101A896
:1013A00000F0A2F9044600BF254625B100BF28463B
:1013B000FFF76EFE00BF00BF0A2101A800F0ECF9A4
:1013C00006460120034632460021009001A800F0A5
:1013D00069F901A800F054F9FEBD00007421000075
:1013E000C11A0000F7B50D461646002301226946D2
:1013F0000848007800F0B8FC04460649097841F036
:10140000010001233246294600F0AEFC044020468C
:10141000FEBD00009000002038B504460D468DF852
:1014200000408DF8015001230222694602480078ED
:1014300000F09AFC38BD00009000002001B506E0E5
:101440000098401E009040F2E730FFF729F800981E
:101450000028F5D108BD000070B50B4601461A46BC
:10146000002907DA5407260E104C01F00F052D1F36
:10147000665503E05407250E0D4C655400BF00BFB0
:1014800000F01F02012191400A4A440942F8241049
:1014900000BF00BF00F01F020121914042099200ED
:1014A00002F1E022C2F8001100BF70BD18ED00E0AB
:1014B00000E400E080E200E00146C1F3073250B2F0
:1014C0007047000070B504460D46022000F0CAF9CE
:1014D0001E4890F8270001281ED11C48C06820B182
:1014E000022000F0C5F9112070BD1848C460858243
:1014F00000BF4FF4807000F0A5F90028F9D04FF438
:10150000807000F0A9F92946204600F053F9022026
:1015100000F0AEF90020E7E7022000F0A9F9012071
:101520000A4981F827000846446005810020C86008
:101530002946204600F03EF94FF4807000F08CF907
:10154000002000F09BF90020CEE70000E00400201E
:1015500070B505460C46134890F82700012801D1C4
:10156000112070BD0F48163010F8150030B90D4825
:1015700090F82800401C0B4981F82800A1790948FF
:10158000163000F81510E17900EB45004170214656
:10159000284600F017F9E279A179284600F046F9CB
:1015A0000020DEE7E004002070B504460D461B482D
:1015B00090F8260008B1082070BD0DB90720FBE7A0
:1015C00004B9174C1548056020781649086000BF1B
:1015D0006078091D086000BF0120104981F82600CD
:1015E000002081F8270081F8280008616FF0004092
:1015F00000F038F94FF4827000F02EF9A17807203E
:10160000FFF72AFF022000F033F900BF012005494F
:10161000F039086000BF0020CEE70000E0040020A1
:101620009C210000F075004010B50024054890F89A
:10163000270008B9112402E0042000F01FF9204619
:1016400010BD0000E00400202DE9F04105460C46E5
:1016500016461F46204600F01EF9804627B1414637
:10166000286800F023F903E04146286800F01BF9E0
:10167000286800F5A86141F8246000BFBDE8F0814A
:1016800010B504460021206800F019F902202179E4
:1016900001EB4101024A02EB8101087210BD00001A
:1016A000C80400202DE9F04105460E4617461C46A9
:1016B000DDF818804FF48072B2400123B34042EA53
:1016C0000301286800F0F5F82868D0F800122143DB
:1016D000C0F8001200BF43463A4631462846FFF79D
:1016E000B3FFBDE8F08100002DE9F04704460D4648
:1016F0009046207900EB4000254901EB8006307AC6
:1017000010B10820BDE8F087B8F1000F01D1072023
:10171000F8E71DB920791F4901EBC005C6F8008024
:1017200068687060002709E0384600F0ADF881462F
:101730004946206800F0B4F8781CC7B26079B84216
:10174000F2DC2068FFF7B8FE8146E978FFF784FEF7
:1017500069782068D0F8042561F30102C0F80425F7
:1017600000BFA9782068D0F8082561F30102C0F80D
:10177000082500BF29782068D0F8102561F30302FE
:10178000C0F8102500BF012030720020BAE7000029
:10179000C80400208C21000010B502461368D3F85D
:1017A000100500BF03464FF47A544C43DC402046FA
:1017B00010BD0000024A1060121D11607047000049
:1017C0002C76004010B50A7802F003024B783024E2
:1017D00004EA03131A438B784FF4E06404EA03230A
:1017E0001A43CB784FF4805404EA03331A430B793D
:1017F0004FF4E02404EA03431A434B794FF4801476
:1018000004EA03531343084A02EB001293608A79F7
:10181000CB79054C04EB00146360034C04EB00141B
:10182000226000BF10BD000010750040044B03EBA8
:1018300000135A60024B03EB00131960704700005D
:101840001075004001460348085808B10120704750
:101850000020FCE7007000400021014A81507047E1
:1018600000700040014908607047000008730040A4
:101870000149086070470000047300400121014ADB
:10188000815070470070004001464FF4A07000EB9B
:10189000810080B2704701464FF480308840704725
:1018A000002242507047C0F808137047C0F8041374
:1018B0007047D0F800228A43C0F800227047012206
:1018C000425070470146D1F88004C1F88004704747
:1018D0000246505808B1012070470020FCE7002262
:1018E00042507047C0F8081370470246D2F804030C
:1018F000084008B1012070470020FCE70122425057
:1019000070470146D1F88004C1F880047047024650
:10191000505808B1012070470020FCE700224250D7
:101920007047014640F23C504058704710B510488F
:10193000C07D40B94FF484710E48FFF7D0FF00BF5F
:101940000D48006810BD4FF484710A48FFF7C7FFC7
:1019500000BF09480068C0B20549C968044A527E00
:1019600088540348407E401C0149487600BFE9E79F
:101970009800002000200040182500407FB5044654
:101980000D4601208DF800008DF8084001950348B0
:1019900001684268684690477FBD000098000020BB
:1019A00070B504462078A8B901216068FFF78AFD68
:1019B000054600BF2E4626B100BF3046FFF768FB44
:1019C00000BF00BF6068B0F9002003A10020FFF74E
:1019D0001EF800BF70BD000025640D0A0000000065
:1019E0007CB51F4903C9CDE900011E490020FFF75E
:1019F000DBFD044600BF254625B100BF2846FFF7A2
:101A000047FB00BF00BF69460020FFF7A1FD044669
:101A100000BF254625B100BF2846FFF739FB00BFB0
:101A200000BF01211048FFF74DFD044600BF2546C9
:101A300025B100BF2846FFF72BFB00BF00BF0121E7
:101A40000948801CFFF73EFD044600BF254625B12E
:101A500000BF2846FFF71CFB00BF00BF7CBD000095
:101A600064210000A119000000000020FEB5124909
:101A700003C9CDE90101114A002101A8FFF734FE95
:101A8000044600BF254625B100BF2846FFF700FBEE
:101A900000BF00BF042101A8FFF77EFE064601201B
:101AA000034632460021009001A8FFF7FBFD01A884
:101AB000FFF7E6FDFEBD00006C210000251B0000C5
:101AC00070B504460D46B4F5A07F1DD10020104925
:101AD000086000BF00BF06220E490720FFF782FC06
:101AE0000C4800788007800B0A49497840EA0120B9
:101AF00008498978084308490860084607A1026830
:101B00000020FEF784FF00E000BF00BF70BD0000B2
:101B100040910040040000201000002025640D0AC0
:101B2000000000002DE9F04105460F46B5F5A07F05
:101B30000CD1FFF779FD044600BF264626B100BF51
:101B40003046FFF7A5FA00BF00BF00E000BF00BFAE
:101B5000BDE8F0812DE9F0412B48056800202A49B5
:101B600008602A48066840F20D610160001D0768A0
:101B7000016000BF4FF400002549086000BF00BFAE
:101B80004010086000BF0420FEF7C6FC2048083063
:101B90000068C0F3C05038B11D4808300068C0F379
:101BA000805008B1012425E000244FF012081AE00B
:101BB00000BF4FF480001649091D086000BF0420D3
:101BC000FEF7AAFC00BF4FF480001149086000BF77
:101BD0000420FEF7A1FC0E4808300068C0F3C05096
:101BE00008B1012404E0B8F10000A8F10108DFD138
:101BF00000BF00BF05480660001D07600248056081
:101C00002046BDE8F0810000004500405807005024
:101C10000805005010B540F20C6115480160001D28
:101C200001600020134908604FF04021C1F81C01F9
:101C30001620114908601720091D08604FF0CC706C
:101C40000D491C3108600B4830300C4908600949C7
:101C5000EC390A48001D0160012008490839086074
:101C60000520054908390860FFF774FF10BD000022
:101C700058070050084100400845004010F5014059
:101C80002DE9F04105460C46174644F6206614B986
:101C90000020BDE8F081012C03D12F492F480160BD
:101CA00003E02D4908312D48016001202B491039EE
:101CB000086000202849F431086001204FF04021DD
:101CC000086037E000BF2448F430006828B9244891
:101CD000006810B9701E061EF5D1002020491C397D
:101CE000086016B11E48006870B100201C490860E9
:101CF0001C4908600520FEF70FFC05201949086003
:101D0000FFF788FF0020C4E716481830006805F880
:101D1000010B601EC0B20446012802D10E490F48D3
:101D2000016004B907E01420FEF7F6FB01204FF034
:101D300040210862C6E700BF00BF0948203800689C
:101D40000028FAD000200649203908600120034904
:101D50000C39086000BF9CE71440004014F50140B6
:101D600024410040004500402DE9F04104460E4664
:101D700015461F464FF00008002D15DDFFF7EAFE5F
:101D800090B160100A49086004F0010030B13A4691
:101D900029463046FFF774FF804605E03A4629465B
:101DA000304600F007F880464046BDE8F08100006C
:101DB000884500402DE9F04104460D46164644F69C
:101DC000206715B90020BDE8F08114F8010B244903
:101DD000086001204FF0402188602DE000BF2148BD
:101DE000006830B91F480830006810B9781E071E17
:101DF000F5D11FB11B480830006888B1002019498F
:101E00000831086016491C3908600520FEF784FB7C
:101E1000052013491C390860FFF7FCFE0020D2E7BB
:101E2000002010490860681EC0B2051E00D104E001
:101E300014F8010B0A490860D0E700BF6EB100201A
:101E400008491839086001204FF04021486100BF5F
:101E50000448183800680028FAD00120B3E70000D1
:101E60001C4500401C41004010B54FF48E710948DC
:101E7000FFF735FD084880680749898A445C0648B1
:101E8000808A401C0449888220460449086000BFBB
:101E900010BD000000200040980000201C250040DC
:101EA0001FB5044600208DF800008DF80840064854
:101EB00080680190002004498875084601684268DE
:101EC000684690471FBD0000980000207FB54FF482
:101ED00000715448FFF709FD68B34FF492715148FF
:101EE000FFF7F6FC38B34FF492714E48FFF7F7FC5A
:101EF0004FF401714B48FFF7F5FC4B48807E18B951
:101F000004214848FFF7FAFC02208DF800004548FC
:101F1000FFF7D8FC03904448C17D8DF80810C068D5
:101F2000019000204049C87508760846016842685B
:101F3000684690473CE004213A48FFF7D6FC002869
:101F400036D04FF484713748FFF7C2FC00282FD0F9
:101F5000FFF7ECFC3448C07D3349497E884227D1E5
:101F60003148007E80B13048C468457E007E2E49ED
:101F7000C87508460069C860002008764876214682
:101F80002846FFF7FBFC13E02748807E18B90421A0
:101F90002448FFF7B3FC4FF401712248FFF7A2FC7D
:101FA00000202149C8750A46D168507EFFF7E6FC3B
:101FB0004FF48E711B48FFF78BFCA0B11A48808A42
:101FC0001949897D884202DAFFF74EFF0BE04FF492
:101FD0008E711448FFF783FC1348807D18B11249B5
:101FE000887DFFF75DFF4FF4A2710E48FFF770FC8C
:101FF000B0B14FF4A2710B48FFF771FC0A48807E24
:1020000018B100210748FFF779FC0748C07D38B1B7
:1020100000200549C8750A46D168507EFFF7AEFC1E
:102020007FBD000000200040980000207FB54FF4E5
:1020300092714648FFF76BFCF0B14FF49271434840
:10204000FFF76CFC02208DF800004048FFF759FCB8
:1020500003903E48FFF765FCC1B28DF808103C487C
:10206000C068019000203A49C875087608460168A2
:1020700042686846904737E04FF488713348FFF76D
:1020800046FC002830D04FF488713048FFF746FCFA
:102090002E48FFF746FCC4B22D48C07DA04222D195
:1020A0002B48007EB8B12A48C56820202949096814
:1020B0008143264AC2F8001200BF2548007E244909
:1020C000C87508460069C860002008762946204681
:1020D000FFF754FC07E000201D49C8750846C16899
:1020E0002046FFF74BFC00BF4FF4A2711748FFF7E3
:1020F0000EFC98B14FF4A2711448FFF70FFC14487E
:10210000C07D58B100201249C8751048FFF709FC7E
:10211000C4B20F48C1682046FFF730FC4FF49071FD
:102120000A48FFF7F4FB78B14FF490710748FFF7C6
:10213000F5FB0748807D38B1044840F24C510958FE
:10214000CCB22046FFF7ACFE7FBD0000002000406F
:1021500098000020002200404FF04070E1EE100A8D
:1021600070470000000000000200010000900040E5
:102170000004000000A000400104000030313233B0
:10218000343536373839414243444546000003066A
:10219000000000000000030600000000010006002F
:1021A0005465726D696E616C00000000CC21000006
:1021B00000000020980000003C04000064220000A1
:1021C00098000020D84400005804000000000000DF
:1021D00000000000000000000000000000000000FF
:1021E0000000000053454747455220525454000018
:1021F000000000000200000002000000A02100001A
:10220000B8000020000400000000000000000000F2
:1022100000000000000000000000000000000000BE
:10222000000000000000000000000000A0210000ED
:10223000B8040020100000000000000000000000B2
:10224000000000000000000000000000000000008E
:10225000000000000000000000000000000000007E
:042260000090D00317
:0400000500000401F2
:00000001FF
