:020000040000FA
:10000000C041002099050000A1050000A3050000E3
:10001000A5050000A7050000A905000000000000DC
:10002000000000000000000000000000AB05000020
:10003000AD05000000000000AF050000B1050000A4
:10004000B3050000B3050000350B0000B305000048
:10005000B3050000B3050000B3050000B3050000C0
:10006000B3050000B3050000B3050000B3050000B0
:10007000B3050000B3050000B3050000B3050000A0
:10008000B3050000B3050000B3050000B305000090
:10009000B3050000B3050000B3050000B305000080
:1000A000B3050000B3050000B3050000B305000070
:1000B000B3050000B30500000000000000000000D0
:1000C000B3050000B3050000B3050000B305000050
:1000D000B3050000B3050000B305000000000000F8
:1000E0000000000000000000000000000000000010
:1000F0000000000000000000000000000000000000
:1001000000000000000000000000000000000000EF
:1001100000000000000000000000000000000000DF
:1004000000F002F800F041F80AA090E8000C8244E5
:100410008344AAF10107DA4501D100F036F8AFF2C2
:10042000090EBAE80F0013F0010F18BFFB1A43F0D2
:1004300001031847F81B0000181C0000103A24BFE5
:1004400078C878C1FAD8520724BF30C830C144BF39
:1004500004680C607047000000230024002500267B
:10046000103A28BF78C1FBD8520728BF30C148BF17
:100470000B607047642900F0EF80002070471FB5C3
:1004800001F0A8FD1FBD10B510BD00F0DDF911464B
:10049000FFF7F5FF00F098FD00F0FBF903B4FFF75C
:1004A000F2FF03BC00F002FA401E00BF00BF00BF15
:1004B00000BF00BF00BF00BF00BF00BF00BF00BF44
:1004C00000BF00BF00BF00BF00BF00BF00BF00BF34
:1004D00000BF00BF00BF00BF00BF00BF00BF00BF24
:1004E00000BF00BF00BF00BF00BF00BF00BF00BF14
:1004F00000BF00BF00BF00BF00BF00BF00BF00BF04
:1005000000BF00BF00BF00BF00BF00BF00BF00BFF3
:1005100000BF00BF00BF00BF00BFC5D170470000D3
:10052000401E00BF00BF00BF00BF00BF00BF00BF34
:1005300000BF00BF00BF00BF00BF00BF00BF00BFC3
:1005400000BF00BF00BF00BF00BF00BF00BF00BFB3
:1005500000BF00BF00BF00BF00BF00BF00BF00BFA3
:1005600000BF00BF00BF00BF00BF00BF00BF00BF93
:1005700000BF00BF00BF00BF00BF00BF00BF00BF83
:1005800000BF00BF00BF00BF00BF00BF00BF00BF73
:1005900000BFC5D17047000009488047094800479F
:1005A000FEE7FEE7FEE7FEE7FEE7FEE7FEE7FEE723
:1005B000FEE7FEE704480549054A064B7047000080
:1005C000A909000001040000C0010020C041002072
:1005D000C0210020C02100200FB4044910B503AA97
:1005E000029800F003F910BC5DF814FB0C00002029
:1005F0002DE9F0410E460446002020622046E168C5
:10060000884730B3252805D0D4E901219047206AD6
:10061000401CF2E7E168204600278847050018D013
:10062000A5F14100192802D820354FF40067324661
:10063000294620462760FFF71DFF40B1012804D05E
:10064000F61D26F007060836D8E7361DD6E72846F9
:10065000DAE7206ABDE8F0812DE9F0410646002482
:1006600010687529314616A510D0AFF30080002818
:1006700002DA404213A507E031688A0701D512A5C6
:1006800002E0490704D511A5012401E0AFF3008081
:1006900000210A2206F1240709E0B0FBF2FCB0FBBE
:1006A000F2F302FB1C00303078541846491C002835
:1006B000F3D123462A463046BDE8F04100F03DB86C
:1006C000000000002D0000002B00000020000000B2
:1006D00010B5203AC0F00B80B1E81850203AA0E8DD
:1006E0001850B1E81850A0E81850BFF4F5AF5FEA11
:1006F000027C24BFB1E81850A0E8185044BF18C9C4
:1007000018C0BDE810405FEA827C24BF51F8043B6A
:1007100040F8043B08BF7047D20728BF31F8023BBE
:1007200048BF11F8012B28BF20F8023B48BF00F852
:10073000012B70477047704770472DE9F0470D4611
:1007400099469246044600F124080168880604D5BB
:10075000E06921F01001216000E00120A84201DDE4
:10076000471B00E00027A1697A1902EB0900081A6B
:10077000A0612078C00602D42046AFF30080002696
:1007800008E0D4E901211AF806009047206A401CCD
:10079000761C20624E45F4DB2078C0060AD5204640
:1007A000AFF3008006E0D4E9012130209047206AB1
:1007B000401C2062381EA7F10107F4DC07E0D4E9F1
:1007C000012118F805009047206A401C2062281E6D
:1007D000A5F10105F3DC2046AFF300802078000688
:1007E00002D50220BDE8F0870120FBE7074B70B57A
:1007F0000D467B4400F011F80446284600F020F82E
:1008000010B14FF0FF3070BD204670BDC30700002F
:1008100001694A1C02610878704700B58FB0CDE9C4
:1008200001310021059105497944CDE903101146B4
:100830006846FFF7DDFE0FB000BD0000E5FFFFFFDB
:10084000007B00F080007047754600F02BF8AE4644
:1008500005006946534620F00700854618B020B5CC
:10086000FFF7A8FEBDE820404FF000064FF000075C
:100870004FF000084FF0000B21F00701AC46ACE848
:10088000C009ACE8C009ACE8C009ACE8C0098D46B5
:10089000704710B50446AFF300802046BDE8104015
:1008A000FFF7FCBD004870475C010020014918209B
:1008B000ABBEFEE72600020070477CB504460D463D
:1008C0001646062269463B2000F056FC9DF80100C2
:1008D0009DF8001040EA012000B22080208800F43A
:1008E000004010B1208800B220809DF803009DF8E0
:1008F000021040EA012000B22880288800F400405D
:1009000010B1288800B228809DF805009DF80410D9
:1009100040EA012000B23080308800F4004010B17D
:10092000308800B230807CBD7CB504460D4616464A
:1009300006226946432000F01FFC9DF801009DF847
:10094000001040EA012000B22080208800F400401E
:1009500010B1208800B220809DF803009DF802109D
:1009600040EA012000B22880288800F4004010B13D
:10097000288800B228809DF805009DF8041040EA00
:10098000012000B23080308800F4004010B130887F
:1009900000B230807CBD0000014802490860704709
:1009A0000090D0031800002010B500F011FA10B12B
:1009B00057485849486700F023FA28B1564800685C
:1009C000C0F342305549086000F044FA28B1544859
:1009D000006820F080705249086000F053FA48B176
:1009E0000020504908604FF08041C1F810014B4988
:1009F000091F086000F070FA18B1032047496431FC
:100A0000086000F081FA68B10520474908600120BC
:100A100045497831086000204349083108603F208B
:100A2000091F086000F088FA002855D03F48006888
:100A30003F4908603D48001D0068091D08603B48AB
:100A400008300068091D086038480C300068091D2E
:100A50000860364810300068091D086033481430BB
:100A60000068091D0860314818300068304920319D
:100A700008602E481C300068091D08602B48203093
:100A80000068091D0860294824300068091D0860B5
:100A9000264828300068091D086024482C3000686A
:100AA000091D086021483030006821494031086044
:100AB0001E4834300068091D08601C483830006842
:100AC000091D086019483C300068091D0860174876
:100AD00040300068091D086011487438006840F40F
:100AE00070000F497439086000BF00BF00BFBFF33A
:100AF0004F8F00BF00BF00BF00BF00BF00BFBFF3EC
:100B00006F8F00BF00BF00BFFFF746FF10BD0000A2
:100B10000DF0ADBA00C00740440200103C05004093
:100B2000FCED00E00C0100401056004004040010F1
:100B300020C5004010B50448007F10B101F0B4F9A1
:100B400001E001F001F910BD1C01002000BF00BF51
:100B500000BF00BF00BFBFF34F8F00BF00BF00BF8B
:100B60000948006800F4E06008490843001D064990
:100B7000086000BF00BF00BFBFF34F8F00BF00BFC2
:100B800000BF00BF00BFFDE70CED00E00000FA056C
:100B90003EB50446002000900190029002946A46FF
:100BA000002144F20100FFF7D1FF3EBD70B50446BD
:100BB0000D46204600F0E9F928B12946204600F00C
:100BC000D3F9002070BD0520FCE7034609B90E20CB
:100BD000704712B1501E104008B10920F8E71960A3
:100BE000501E988000209860D86000BFF0E770B574
:100BF00004460D46204600F0C8F9A188884205D871
:100C00002946204600F0CFF9002070BD0420FCE703
:100C10002DE9F04188B004460D461746984629480C
:100C200007601DB9072008B0BDE8F081A88882B22E
:100C300025482968FFF7C9FF064600BF0EB13046B8
:100C4000F1E700BFA88982B22048A968FFF7BDFF7D
:100C5000064600BF0EB13046E5E700BF20221C4922
:100C60006846FFF735FDA0680690207908B101209D
:100C700000E000208DF814008DF81C80607908B128
:100C80000E2000E000208DF81500E0780290A0789A
:100C9000039020780190607800900E49684600F03B
:100CA000E5FA064600BF0EB13046BCE700BF9DF82E
:100CB0001D0008B900F0A4FB0121074800F048FB23
:100CC000B1E70000040000203C0100204C0100209E
:100CD0000C200000891C00000900002070B50446AB
:100CE00021460A48FFF783FF054665B900F0EEFC90
:100CF00048B907490548FFF759FF20B901210448C1
:100D000000F042FC0546284670BD00004C01002062
:100D10000800002010B50446206800F00DFD206892
:100D200000F0FDFC0021606800F0ECFC2548007F2D
:100D300018B3A0692449086000BF607D217D40EAA6
:100D40000102224BC3F86C2500BF1846D4E90012FB
:100D500000F04AFD207D012832D10021A06800F07A
:100D6000D1FCE06800F0E8FCE06800F0D8FC17482F
:100D7000D4E9022100F024FD22E0A06912490860B4
:100D800000BF607D217D40EA0102104BC3F86C2555
:100D900000BF1846D4E9001200F0FDFC207D0128B8
:100DA0000ED10021A06800F0ADFCE06800F0C4FCAA
:100DB000E06800F0B4FC0548D4E9022100F0D4FC5E
:100DC00010BD00001C010020242500400020004030
:100DD0000A48007806280ED10848001D007800F067
:100DE0000F0040B905480830007800F0F0003028C6
:100DF00001D1012070470020FCE70000E00F00F067
:100E000013480078062820D11148001D007800F012
:100E10000F00D0B90E480830007800F0F0003028FC
:100E200001D1012070470A480830007800F0F00036
:100E3000402801D10120F5E705480830007800F08E
:100E4000F000502801D10120ECE70020EAE7000083
:100E5000E00F00F00A48007806280ED10848001D6F
:100E6000007800F00F0040B905480830007800F025
:100E7000F000302801D1012070470020FCE700007D
:100E8000E00F00F013480078062820D11148001D1B
:100E9000007800F00F00D0B90E480830007800F05C
:100EA000F000302801D1012070470A48083000784E
:100EB00000F0F000402801D10120F5E70548083096
:100EC000007800F0F000502801D10120ECE700206C
:100ED000EAE70000E00F00F00A48007806280ED18B
:100EE0000848001D007800F00F0040B905480830A0
:100EF000007800F0F000302801D101207047002078
:100F0000FCE70000E00F00F00A48007806280ED148
:100F10000848001D007800F00F0040B9054808306F
:100F2000007800F0F000302801D101207047002047
:100F3000FCE70000E00F00F00A48007806280ED118
:100F40000848001D007800F00F0040B9054808303F
:100F5000007800F0F000502801D1012070470020F7
:100F6000FCE70000E00F00F070B504460D462A468D
:100F70000021204600F00EF8A068401CA06070BD63
:100F800001468A68C868801A704701468A68C8683E
:100F9000801A704710B583680B4484882340046826
:100FA000E35C137010BDC26883881A4003689954CB
:100FB000C268521CC260704770B504460D46E0B26C
:100FC000FFF78CFE204670BD86B0112001210A4635
:100FD00000231C461D4641EA420646EA830646EACD
:100FE000042646EA0547274E46F8207000BF00BF9A
:100FF00000BF8140244A116000BF00F005FE00F0F0
:10100000A7FC4FF4FA6000F0F4F806E01FA0FFF729
:10101000E3FA4FF4FA7000F0ECF8682000F066F89C
:101020000028F3D01EA0FFF7D7FA012201A97520EE
:1010300000F0A2F89DF804101EA0FFF7CDFA1FE003
:1010400005AA911E04A8FFF738FC03AA911E02A866
:10105000FFF76AFCBDF91430BDF91220BDF910107C
:1010600019A0FFF7B9FABDF90C30BDF90A20BDF996
:10107000081019A0FFF7B0FA4FF4FA7000F0B9F8B1
:10108000DEE7000000070050080500506D7075365F
:1010900030353020696E6974206661696C0D0A0014
:1010A0006D70753630353020696E6974206F6B0D48
:1010B0000A0000006D707536303530206964206993
:1010C00073202564200D0A004143433A2020256403
:1010D00009256409256409004759524F3A202564BF
:1010E000092564092564090D0A0000002DE9FC4169
:1010F000054601241DA103C9CDE9000100266806AB
:10110000000E1C49087007273946682000F04EF889
:1011100004409DF80010192000F048F89DF80110D7
:101120001A2000F043F89DF802106B2000F03EF802
:101130009DF803101B2000F039F89DF804106A2078
:1011400000F034F89DF80510372000F02FF89DF8D6
:101150000610382000F02AF831461C2000F026F84E
:1011600000F036F804402046BDE8FC810000031082
:101170000032010014000020F7B50D46164600238A
:10118000012269460848007800F08CFC04460649B4
:10119000097841F0010001233246294600F082FC23
:1011A00004402046FEBD00001400002038B504466F
:1011B0000D468DF800408DF801500123022269464A
:1011C0000248007800F06EFC38BD000014000020DA
:1011D00008B5012269467520FFF7CEFF38B19DF8AA
:1011E0000000682801D0002008BD0120FCE7002095
:1011F000FAE701B506E00098401E009040F2E730A3
:10120000FFF752F900980028F5D108BD70B50B46DC
:1012100001461A46002907DA5407260E104C01F041
:101220000F052D1F665503E05407250E0D4C655420
:1012300000BF00BF00F01F02012191400A4A44098B
:1012400042F8241000BF00BF00F01F0201219140AE
:101250004209920002F1E022C2F8001100BF70BD05
:1012600018ED00E000E400E080E200E070B5044624
:101270000D463148C07E08B1082070BD04B92F4C1E
:10128000607F2D4908772046FFF744FD2A484560D6
:101290002949206908600846406880B3267F0846CF
:1012A000007FC0B14FF48871254800F086FA4FF4F2
:1012B0009071234800F081FA4FF49271204800F0B9
:1012C0007CFA4FF4A2711E4800F077FA1D491C48C1
:1012D00000F07FFA0DE04FF48E71194800F041FAEA
:1012E0004FF4A271164800F03CFA1749144800F078
:1012F00043FA31460220FFF789FF00BF00BF00BF5D
:101300000D48007F28B100BF08201049086000BFC9
:1013100005E000BF04200D49086000BF00BF00BF0A
:1013200000200549C875087688750120C876002018
:10133000887600BFA1E700001C010020EC1F000020
:101340000020004010030200800002000025004041
:1013500070B504460D462848007F30B1200C0004CB
:10136000B0F1005F01D0102070BD00262248406817
:1013700068B12148007F28B14FF404711F4800F084
:1013800025FA04E04FF401711C4800F0F2F91A4804
:10139000C07DB0B11848007E90B11748406868B170
:1013A0001548007F28B14FF40471144800F011FA79
:1013B00004E04FF40171114800F0DEF91120D3E789
:1013C00001263EB90C48C575C46000200A4948761C
:1013D000087602E00848046105760748007F28B1D6
:1013E00032462946204600F075F8BDE732462946C8
:1013F000204600F015F8B7E71C010020002000404F
:1014000010B50648007F38B90448807E20B900F046
:101410002DFA01200149887610BD00001C01002032
:101420002DE9F0478046894616462848807E10B947
:101430000EB900F01BFA2548406800283FD14FF450
:10144000A271234800F08DF900BF00BF4FF49271E4
:101450001F4800F07FF905464FF484711C4800F0E6
:1014600079F907464FF4A271194800F073F9044660
:1014700017B90CB9002DE9D005B904B107E000F0A7
:10148000BBF91248C07D1149497E8842DDDC00BFAE
:1014900000200E49C87515B10320BDE8F0870CB1D6
:1014A0000F20FAE70948807E20B10021084800F0AB
:1014B0006FF903E00421064800F06AF904E04FF4F4
:1014C0000171034800F058F90020E6E71C010020F4
:1014D000002000402DE9F04704460D4690464FF4A9
:1014E0008871264800F069F94FF4A271234800F092
:1014F00064F92248C0F834454FF4A7610D5000BF8D
:10150000B8F1000F03D1002100F06BF908E02020B2
:101510001B4909680143194AC2F8001200BF00BF05
:101520001848406818BB00BF4FF48871134800F09A
:101530003DF981464FF4A271104800F037F9074693
:101540004FF492710D4800F031F90646B9F1000FE1
:1015500002D10FB9002EE7D000200A49C87516B194
:101560000320BDE8F0870FB10F20FAE704E04FF445
:101570000471024800F02DF90020F2E7002000403D
:10158000002200401C01002070B504460D460F48A3
:10159000007F30B1200C0004B0F1005F01D01020BA
:1015A00070BD00F093F808B11120F9E70748857580
:1015B00084600020054988820846007F10B100F051
:1015C0004DF8EDE700F004F8EAE700001C01002008
:1015D00010B500244FF48E711E4800F0C2F80821A7
:1015E0001C4800F0D5F800F0DDFA1B48406878BBD5
:1015F00012E000BF4FF48E71164800F0ABF820B92E
:101600001548808AB0F5807FF4D11348808AB0F500
:10161000807F01D000F0C6FA0F48808A0E49897D8C
:101620008842E6DB0C48808AB0F5807F01D10F2428
:101630000BE000BF4FF48E71064800F08BF80028D5
:10164000F8D00C21034800F0A3F800200249887567
:10165000204610BD002000401C01002070B500266F
:101660004FF49071174800F0A8F84FF4AC7115488A
:1016700000F0A3F81348144B99689A7DC0F84415FC
:101680004FF4A9631A5000BF082100F0AAF80E48D1
:101690004068A8B900BF4FF490710A4800F086F87E
:1016A00005464FF4AC71074800F080F804460DB9C8
:1016B000002CF0D004B10F2600200349887500BF2C
:1016C000304670BD002000401C0100200348807D92
:1016D00008B1012070470020FCE700001C01002039
:1016E000F0B5DDE9054541EA420646EA830646EAE9
:1016F000042646EA0547024E46F82070F0BD000079
:10170000000700507CB505460C460020009023469B
:101710000246014601902846FFF7E2FF7CBD1CB55A
:101720000446002000900346012211460190204605
:10173000FFF7D6FF1CBD000001218140014A116066
:1017400070470000080500500146D1F88004C1F838
:10175000800470470246505808B1012070470020AD
:10176000FCE7002242507047C0F80815C0F8102569
:101770007047C0F808137047C0F80413704702465A
:10178000D2F80403084008B1012070470020FCE7AC
:10179000012242507047C0F80C15C0F8142570475C
:1017A0000146D1F88004C1F88004704702465058C1
:1017B00008B1012070470020FCE70022425070472A
:1017C000C0F808154FF4A2631A507047C0F8081308
:1017D0007047C0F804137047014640F23C5040582F
:1017E000704701224250704740F20C53195040F2AA
:1017F00014531A507047000010B51048C07D40B90E
:101800004FF484710E48FFF7ACFF00BF0D4800682D
:1018100010BD4FF484710A48FFF7A3FF00BF0948C9
:101820000068C0B20549C968044A527E885403481A
:10183000407E401C0149487600BFE9E71C010020BA
:1018400000200040182500407FB504460D460120C9
:101850008DF800008DF80840019503480168426842
:10186000684690477FBD00001C01002010B54FF472
:1018700092710648FFF775FF4FF484710348FFF734
:1018800070FF00210148FFF783FF10BD00200040DA
:101890002DE9F0412B48056800202A4908602A48B4
:1018A000066840F20D610160001D0768016000BF1D
:1018B0004FF400002549086000BF00BF40100860D9
:1018C00000BF0420FEF72CFE204808300068C0F35B
:1018D000C05038B11D4808300068C0F3805008B1CE
:1018E000012425E000244FF012081AE000BF4FF455
:1018F00080001649091D086000BF0420FEF710FE95
:1019000000BF4FF480001149086000BF0420FEF7BB
:1019100007FE0E4808300068C0F3C05008B101242B
:1019200004E0B8F10000A8F10108DFD100BF00BF5A
:1019300005480660001D0760024805602046BDE8B6
:10194000F081000000450040580700500805005095
:1019500010B540F20C6115480160001D01600020C7
:10196000134908604FF04021C1F81C0116201149AD
:1019700008601720091D08604FF0CC700D491C311C
:1019800008600B4830300C4908600949EC390A48B6
:10199000001D01600120084908390860052005493B
:1019A00008390860FFF774FF10BD000058070050A9
:1019B000084100400845004010F501402DE9F04184
:1019C00005460C46174644F6206614B90020BDE8CB
:1019D000F081012C03D12F492F48016003E02D49EC
:1019E00008312D48016001202B4910390860002082
:1019F0002849F431086001204FF04021086037E0A9
:101A000000BF2448F430006828B92448006810B9A1
:101A1000701E061EF5D1002020491C39086016B141
:101A20001E48006870B100201C4908601C4908600D
:101A30000520FEF775FD052019490860FFF788FFAE
:101A40000020C4E716481830006805F8010B601E36
:101A5000C0B20446012802D10E490F48016004B902
:101A600007E01420FEF75CFD01204FF040210862E2
:101A7000C6E700BF00BF0948203800680028FAD038
:101A80000020064920390860012003490C3908600C
:101A900000BF9CE71440004014F501402441004081
:101AA000004500402DE9F04104460E4615461F460C
:101AB0004FF00008002D15DDFFF7EAFE90B1601031
:101AC0000A49086004F0010030B13A462946304620
:101AD000FFF774FF804605E03A462946304600F09D
:101AE00007F880464046BDE8F08100008845004088
:101AF0002DE9F04104460D46164644F6206715B917
:101B00000020BDE8F08114F8010B24490860012091
:101B10004FF0402188602DE000BF2148006830B9B7
:101B20001F480830006810B9781E071EF5D11FB194
:101B30001B480830006888B1002019490831086046
:101B400016491C3908600520FEF7EAFC05201349F8
:101B50001C390860FFF7FCFE0020D2E70020104986
:101B60000860681EC0B2051E00D104E014F8010B25
:101B70000A490860D0E700BF6EB100200849183953
:101B8000086001204FF04021486100BF0448183828
:101B900000680028FAD00120B3E700001C4500408F
:101BA0001C41004010B54FF48E710948FFF7D9FD74
:101BB000084880680749898A445C0648808A401C36
:101BC0000449888220460449086000BF10BD000017
:101BD000002000401C0100201C2500401FB50446C9
:101BE00000208DF800008DF80840064880680190BC
:101BF0000020044988750846016842686846904795
:101C00001FBD00001C01002030B587B0104A07CA74
:101C100004AB07C300BF0F480090012001900E489D
:101C200002904FF48070039006230C4A694604A882
:101C3000FEF7EEFF044600BF00BF254625B100BFFA
:101C40002846FEF7A5FF00BF00BF07B030BD00006B
:101C5000E01F0000000000201C000020611C0000AC
:101C600010B504462078022804D100BF6068FEF752
:101C70008FFF07E02078012804D100BF6068FEF7DD
:101C800087FF00BF10BD00007CB504460E462078DB
:101C9000012827D1606801782648FEF7A8FF05468D
:101CA00045B101208DF80000019568462249096878
:101CB00088470BE01F48FFF763F9012806D1002091
:101CC0008DF8000068461C49096888471948FFF7E5
:101CD00057F918498988884203D801211748FFF726
:101CE00037FB25E0207802280CD18DF80000E06851
:101CF000019001211148FFF72BFB68460E49096846
:101D0000884715E0207898B90D490E48FEF74EFF38
:101D100018B901210A48FFF737FC0A48FFF730F9E4
:101D200030B903208DF800006846034909688847E8
:101D30007CBD00003C0100200400002009000020C0
:101D4000080000204C0100207FB54FF4007154487A
:101D5000FFF715FD68B34FF492715148FFF7FAFC95
:101D600038B34FF492714E48FFF7FBFC4FF401710A
:101D70004B48FFF7FEFC4B48807E18B904214848C9
:101D8000FFF706FD02208DF800004548FFF7DCFC58
:101D900003904448C17D8DF80810C0680190002070
:101DA0004049C87508760846016842686846904709
:101DB0003CE004213A48FFF7E2FC002836D04FF41B
:101DC00084713748FFF7C6FC00282FD0FFF714FDB9
:101DD0003448C07D3349497E884227D13148007E4E
:101DE00080B13048C468457E007E2E49C8750846DB
:101DF0000069C86000200876487621462846FFF72B
:101E000023FD13E02748807E18B904212448FFF7FA
:101E1000BFFC4FF401712248FFF7ABFC00202149C1
:101E2000C8750A46D168507EFFF70EFD4FF48E71DB
:101E30001B48FFF78FFCA0B11A48808A1949897D99
:101E4000884202DAFFF7AEFE0BE04FF48E711448C1
:101E5000FFF787FC1348807D18B11249887DFFF792
:101E6000BDFE4FF4A2710E48FFF774FCB0B14FF401
:101E7000A2710B48FFF775FC0A48807E18B100215B
:101E80000748FFF785FC0748C07D38B100200549A9
:101E9000C8750A46D168507EFFF7D6FC7FBD0000AA
:101EA000002000401C0100207FB54FF4927146488D
:101EB000FFF77CFCF0B14FF492714348FFF77DFCD3
:101EC00002208DF800004048FFF76AFC03903E486E
:101ED000FFF782FCC1B28DF808103C48C068019041
:101EE00000203A49C8750876084601684268684685
:101EF000904737E04FF488713348FFF757FC0028CC
:101F000030D04FF488713048FFF757FC2E48FFF768
:101F100063FCC4B22D48C07DA04222D12B48007E74
:101F2000B8B12A48C5682020294909688143264A52
:101F3000C2F8001200BF2548007E2449C875084633
:101F40000069C8600020087629462046FFF77CFC1F
:101F500007E000201D49C8750846C1682046FFF704
:101F600073FC00BF4FF4A2711748FFF71FFC98B134
:101F70004FF4A2711448FFF720FC1448C07D58B1FB
:101F800000201249C8751048FFF726FCC4B20F485C
:101F9000C1682046FFF758FC4FF490710A48FFF7DC
:101FA00005FC78B14FF490710748FFF706FC07482D
:101FB000807D38B1044840F24C510958CCB22046DB
:101FC000FFF70CFE7FBD0000002000401C01002038
:101FD000002200404FF04070E1EE100A7047000010
:101FE000080605070000000000E0D701000000001F
:101FF00000000000000000000000000000000000E1
:10200000000000000000D6010600000000000000F3
:1020100000000000000000000000000000000000C0
:10202000000000000000D601060000004C20000067
:10203000000000201C0000003C040000682000009C
:102040001C000020A4410000580400000000000013
:102050000000000000000000000000000000000080
:08206000000000000090D00315
:0400000500000401F2
:00000001FF
