:020000040001F9
:10F00000904C002015F401001DF401001FF40100D4
:10F0100021F4010023F4010025F4010000000000A8
:10F0200000000000000000000000000027F40100C4
:10F0300029F40100000000002BF401002DF4010070
:10F0400081F601002FF40100ADFD01002FF4010055
:10F050002FF401002FF40100A5F40100FDF60100DA
:10F060002FF401002FF401002FF401002FF4010010
:10F070002FF401002FF401002FF401002FF4010000
:10F080002FF40100D9F601002FF401002FF4010044
:10F09000E7FA01002FF40100EDFA01002FF401005E
:10F0A0002FF401002FF401002FF401002FF40100D0
:10F0B0002FF401002FF40100000000000000000008
:10F0C0002FF401002FF401002FF401002FF40100B0
:10F0D0002FF401002FF401002FF4010000000000C4
:10F0E0000000000000000000000000000000000020
:10F0F0000000000000000000000000000000000010
:10F1000000000000000000000000000000000000FF
:10F1100000000000000000000000000000000000EF
:10F40000DFF80CD000F03CF800480047C50E0200C1
:10F41000904C00200648804706480047FEE7FEE77C
:10F42000FEE7FEE7FEE7FEE7FEE7FEE7FEE7FEE7B4
:10F4300011FB010001F4010040EA01039B0703D026
:10F4400009E008C9121F08C0042AFAD203E011F823
:10F45000013B00F8013B521EF9D27047D2B201E0E5
:10F4600000F8012B491EFBD270470022F6E710B5C9
:10F4700013460A4604461946FFF7F0FF204610BD22
:10F48000064C074D06E0E06840F0010394E80700F1
:10F4900098471034AC42F6D3FFF7B6FF182D0200A0
:10F4A000382D02002DE9FC5F0025DFF83891A846D1
:10F4B0004FF4807601242F46304602F021FB38B10C
:10F4C000D9F80403204203D0304602F00FFB254355
:10F4D000361D64007F1CB6B2082FEDD34FF4BE7406
:10F4E000204602F00DFB38B1204602F0FFFA3E48FC
:10F4F00045F00045D0F800803C4E15F0FF0F15D0C8
:10F50000012700242F420DD009EB8401D1F810050A
:10F51000D1F81015C0F3042056F82420C1F301419E
:10F5200002B190477F00641C082CEBD3002D56DA03
:10F5300000200190401E4CE0701910F8501F90F907
:10F54000000021F0C004401C38D0012000FA04FA69
:10F550001AEA090F32D04FEA911B204601F0D6F982
:10F5600056F82000009010B9BBF1030F26D1514688
:10F57000BBF1030F02D1019808430190A00000F1F4
:10F58000A040D0F800071AEA080FC0F3014002D0EB
:10F59000022802D012E0032810D1BBF1030F07D1DB
:10F5A00002281AD00221204602F092FA7F1CFFB2F4
:10F5B000009818B1009A5946204690476D1C042DBA
:10F5C000BAD3002F0BD008480068404507D08046CA
:10F5D0000198002781463D46AEE70321E3E7BDE8F9
:10F5E000FC9F0000006000401005005094230020A4
:10F5F00000F01F02012191404009800000F1E0204D
:10F60000C0F88012704700F01F02012191404009AC
:10F61000800000F1E020C0F88011704700F01F0268
:10F62000012191404009800000F1E020C0F8001164
:10F63000704700F01F02012191404009800000F155
:10F64000E020C0F80011704700F01F020121914036
:10F650004009800000F1E020C0F80012704749071F
:10F66000090E002806DA00F00F0000F1E02080F813
:10F67000141D704700F1E02080F80014704700006E
:10F680002DE9F0414FF48077384601F05EFE012409
:10F69000104EA50748B1384601F05EFE0120C5F8BE
:10F6A00008037470002001F039F94FF4827738466E
:10F6B00001F04BFE00280BD0384601F04DFE022031
:10F6C000C5F80803B470BDE8F041012001F026B987
:10F6D000BDE8F0818023002007480021C0F84011D8
:10F6E000C0F84411C0F84811C0F84C11C0F800111E
:10F6F000C0F8041102F02ABF001001402DE9FE43BA
:10F700004FF48278404602F06FFB504F0025504C7A
:10F71000012600B3404602F06FFB94F82B0010B1B5
:10F7200094F82C10D1B18DF80050616801912189B5
:10F73000ADF80810E16829B16160A18A2181E56016
:10F7400018B103E084F8295000E03E602168684663
:10F75000884784F82C5094F82B0098B34FF48077A6
:10F76000384602F041FB68B3384602F045FBE28AB6
:10F7700072B194F82A108A4210D9A2EB010080B22B
:10F78000E0822289A2EB0000626802EB40000BE0FD
:10F79000208994F82A10A0EB0100F0E707D1E06877
:10F7A00028B184F82C60E58202F0D8FA04E08A429D
:10F7B00002D184F82C60E582404602F01DFB23480C
:10F7C000001D06604FF48877384602F00DFB50B1FB
:10F7D000384602F011FB84F8295002208DF8000011
:10F7E0002168684688474FF48A77384602F0FCFA69
:10F7F00030B1384602F000FB84F82950BDE8FE83A2
:10F800004FF000484FF48C7927691CE0B7FA87F075
:10F8100028FA00F109EB80058F43284602F0E4FA4C
:10F8200088B1284602F0E8FAA5F58C75E8088DF84D
:10F83000040045F38000401C8DF800608DF8050041
:10F84000216868468847002FE0D1D7E70070004064
:10F850000C24002070B50C4C049D246984420FD9FF
:10F86000094E00EB400406EBC40430B104F1180665
:10F87000002086E80E00A06260620020E56270BD94
:10F880004FF0FF3070BD0000A82100202DE9F041AD
:10F89000884600EB40012148164600EBC104E16AAE
:10F8A00001F0030002280BD0A06A626A801A401E91
:10F8B00001D5226A1044864202DD89072BD0064614
:10F8C0004EB30027A06A616A451A6D1E01D5206AF1
:10F8D0000544D4E90801411AA94201DC616A451ACC
:10F8E000B54200DB3546616AE0692A460844414674
:10F8F000FFF7A2FD606A2F44A844761B284460628B
:10F90000606A216A884201D100206062002ED9D14C
:10F910003846BDE8F0810020FBE70000A821002068
:10F9200030B40B004FF0000200D104E01C7814B199
:10F93000521C5B1CFAE730BCFFF7A8BF0FB408B538
:10F9400004A900916A46039900F004F801B05DF83B
:10F9500014FB00002DE9F04198B0064607A802907C
:10F9600040200025CDE90305CDE9055690460C461B
:10F9700014F8011B002971D0252908D002A800F035
:10F98000F3FA05980028F3DA18B0BDE8F0810020FA
:10F99000217823291BD02B2916D02D290ED03029D0
:10F9A0000FD000222178A1F130030A2B13D202EBF1
:10F9B000820201EB4202303A641CF3E740F001009E
:10F9C00007E040F0020004E040F0040001E040F0F5
:10F9D0000800641CDCE70023CFB22E2F0CD100BF3F
:10F9E00014F8011FA1F130070A2F05D203EB83039E
:10F9F00001EB4303303BF3E76C290DD068290BD0B2
:10FA0000702954D00BDC252916D0582931D0632910
:10FA10000CD0642913D114E014F8011BECE773290E
:10FA200034D075291BD0782909D122E0D8F80000FC
:10FA3000011DC8F80010017802A800F095FA641CB6
:10FA40009FE7D8F800100F1DC8F800700968CDE9CD
:10FA500000200A2202A800F0B7F9F0E733E0D8F856
:10FA600000100F1DC8F800700968CDE900200A22B7
:10FA700008E0D8F800100F1DC8F800700968CDE93B
:10FA80000020102202A800F001FAD8E7D8F8000000
:10FA9000011DC8F80010076817F8011B0029CED017
:10FAA00002A800F061FA05980028F5DAC7E7D8F84F
:10FAB0000000011DC8F8001001680820CDE900050C
:10FAC00003461022DEE7059800287FF75DAF049813
:10FAD00020B1024607A93046FFF7D8FEDDE9040150
:10FAE0000844059050E702F0A9BC0000074810B593
:10FAF000406830B18047002807D0BDE8104000F0D2
:10FB0000DDBBBDE8104001F0A7B810BD9421002076
:10FB1000F0B598480023021D01780125101D4FF013
:10FB20008056062907D11478240704D10478C4F339
:10FB30000314032C02D0062904D00FE08F4F8E4C03
:10FB40007C670EE01478240708D10478C4F303140A
:10FB5000032C06D0042C04D0052C02D0062907D093
:10FB60000EE0D6F84442864FC4F342343C6002E0D3
:10FB70001478240704D10478C4F30314032C02D0AE
:10FB8000062906D011E07F4C276827F08077276090
:10FB90000EE01478240708D10478C4F30314032C6E
:10FBA00006D0042C04D0052C02D006290AD011E07E
:10FBB0004FF08044C4F80C31C4F81031704C241F4D
:10FBC000236002E01478240704D10478C4F30314FA
:10FBD000032C02D0062905D00CE0694F03246437BA
:10FBE0003C600AE01478240704D10478C4F30314B9
:10FBF000032C02D006290DD014E0634F05243C608D
:10FC0000614C78342560604C083423603F243F1DEC
:10FC10003C6002E01478240704D10478C4F3031490
:10FC2000052C02D0062957D068E058490968584A7F
:10FC300011605649091D0968121D116053490831A8
:10FC40000968121D116051490C310968121D1160BB
:10FC50004E4910310968121D11604C491431096870
:10FC6000121D1160494918310968494A2032116052
:10FC700046491C310968121D116044492031096848
:10FC8000121D1160414924310968121D11603F495C
:10FC900028310968121D11603C492C310968121D78
:10FCA00011603A4930310968394A403211603749A8
:10FCB00034310968121D1160344938310968121D48
:10FCC000116032493C310968121D11602F494031E1
:10FCD0000968121D116002E0117809070ED1007841
:10FCE000C0F30310032803D0042801D0052805D150
:10FCF000D6F85802274900F04F00086021487438B0
:10FD0000016841F470010160BFF34F8FBFF36F8F43
:10FD10004FF01021D1F80002002803DBD1F80402D3
:10FD2000002822DA1C4A15601C480468002CFCD00C
:10FD30001524C1F800420568002DFCD0C1F804422A
:10FD400001680029FCD0136001680029FCD0BFF3D2
:10FD50004F8F0C48F0380168114A01F4E0611143FB
:10FD60000160BFF34F8F00BFFDE70F490D480860EA
:10FD7000F0BD0000E00F00F00DF0ADBA00C007408C
:10FD80003C050040FCED00E010560040040400106B
:10FD900020C50040E40E004004E5014000E40140BD
:10FDA0000400FA050090D003202200200448017FBF
:10FDB00004480029024901D002F00BBE02F07ABDCE
:10FDC000EC230020002000402DE9FC5F0E0081465E
:10FDD000DDE90C47C6F1000098469346824600D400
:10FDE0000846012503E000BFB0FBFBF06D1C584541
:10FDF000FAD2A84500D9454624B1002E01DB780788
:10FE000000D5641EB80702D5B8F1000F10D0F8076E
:10FE10000ED16CB12046641EA84209D92021484663
:10FE200000F0A2F8D9F80C000028F2DABDE8FC9F37
:10FE3000002E02DA56462D2102E0780707D52B2145
:10FE4000484600F091F8D9F80C000028EEDB07F0E6
:10FE50000300022810D1B8F1000F0DD164B1204683
:10FE6000641EA84208D93021484600F07DF8D9F830
:10FE70000C000028F2DAD9E7CDE9004743465A469C
:10FE80003146484600F002F8D0E700002DE9F84F6F
:10FE90008246DDE90A4B0126984691460D46084602
:10FEA000374602E0B0FBF9F07F1C4845FAD2B8456E
:10FEB00000D947465FEACB701CD1DCB15FEA8B709A
:10FEC00002D5B8F1000F02D0202000900AE03020C7
:10FED000FBE75046009900F047F8DAF80C000028DC
:10FEE0003EDB3CB12046641EB842F2D802E000BFBF
:10FEF00006FB09F6B5FBF6F1494501D3012100E007
:10FF000000214246A8F10108012A01DD012000E09C
:10FF100000200143ECD1DFF84C8000BFB5FBF6F0C8
:10FF200000FB165518F80010504600F01DF8DAF8DE
:10FF30000C00002803DBB6FBF9F6002EEED15FEAD9
:10FF4000CB700DD0002C0BD02046641EB84207D9D0
:10FF50002021504600F008F8DAF80C000028F1DA09
:10FF6000BDE8F88FA82C020010B50446D4E9013092
:10FF7000421C934205DB23681954A260E068401CD0
:10FF8000E060D4E90102824209D121682069FFF7CB
:10FF90007DFCA168884203D04FF0FF30E06010BDC7
:10FFA0000020A06010BD02E008C8121F08C1002A8E
:10FFB000FAD170477047002001E001C1121F002AEA
:10FFC000FBD170470121202803DA81400548014018
:10FFD00003E0402802DA2038814009B1012070474F
:10FFE00000207047FC06FFBC2DE9FC470025178860
:10FFF0000646158090F82D001446894630B13A46E1
:020000040002F8
:100000002146484600F030FB050009D1B0784FF09A
:100010000C0A18B32088C846001DB84202D95046C1
:10002000BDE8FC87684679DF0028F9D120880321E4
:1000300008F8001020881921401C80B2208008F8A0
:1000400000102088401C80B2208000EB0801BDF821
:10005000000002F036FD218808442080F07802225A
:10006000C8B1218896F9033001F1030C4846BC451C
:10007000D5D8425421884FF0010C491C89B2218007
:1000800000F801C02188491C89B2218009F801309B
:100090002088401C20807068B8B1218890F9003019
:1000A00001F1030C4846BC45B9D8425421880A22C4
:1000B000491C89B2218042542188491C89B221807F
:1000C00009F801302088401C2080308950B1CDE9EA
:1000D00000474B460622022106F1080002F03EFDD1
:1000E00005009DD1308A50B1CDE900474B4607222B
:1000F000032106F1100002F031FD050090D1308B94
:1001000050B1CDE900474B461522142106F11800E5
:1001100002F024FD050083D1306A30B13B4622460F
:10012000494600F065FC0500DBD1706A30B13B4602
:100130002246494600F0B6FF0500D2D196F82C00C1
:1001400038B13B4622464946304602F06DF805007C
:10015000C7D1307838B13B4622464946304601F097
:10016000A6F80500BDD128465AE700001FB50024B7
:1001700002948DF80840402000940394ADF80A00E2
:1001800001948DF80040ADF80C40684673DF08B16B
:1001900000F094F803494FF400300860081F046031
:1001A0001FBD00000C05005070B50024084D05E08F
:1001B000686810F8340001F00DFA641C2878844255
:1001C000F6D304480068BDE8704000F011B90000A3
:1001D000502100205C2C020070B50024064D06E082
:1001E0006868012110F8340001F018FA641C2878BE
:1001F0008442F5D3002070BD50210020F8B515468B
:100200000C460646052A01D20720F8BD01F0ECFA9B
:1002100018B901F0BBFA0028F7D1104900204E6050
:100220000C70C1E902500E4D08610DE006EBC400F0
:100230006968009181788DF801100078094A694653
:1002400001F03EFA0028E0D1641EE4B2EED2BDE82F
:10025000F840054A0021024800F03CB85021002037
:100260005C2C0200010C0200D90A02000BA1012043
:1002700001F020FD01F082FC01F084FC0028FBD19C
:10028000BFF34F8F0B4801680B4A01F4E061114343
:100290000160BFF34F8F00BFFDE700004150505F8A
:1002A0004552524F523A4552524F523A466174614A
:1002B0006C0D0A000CED00E00400FA050EB50021FB
:1002C0000091CDE901106A4644F20100FFF7CEFF2C
:1002D0000EBD0000074B5B6823B12AB120B1006856
:1002E000037C1BB1082070470720704741744261AE
:1002F00000207047742100202DE9F04707469846FA
:100300001446894690074FF0000526D12CB301F022
:10031000B3FE134E06F11000C6F80C800570457050
:1003200080F8029044607560357075701420FFF796
:100330005FF906211420FFF792F91420FFF76EF9F8
:100340000848076006211120FFF789F90548001FBA
:100350000068B0600020BDE8F0870720FBE70000E0
:1003600064210020081501402DE9FC47DFF8789052
:10037000D9F8043073B368B3052902D20720BDE869
:10038000FC87436933B3437C012B25D00027044607
:100390000025884616468DF80050684600F038F86B
:1003A00001A802F0C3FBC8B1012101700F494460EC
:1003B0000968C0E90218C0E904769DF8040089F8CC
:1003C00001009DF8000000F047F81420FFF73CF909
:1003D0002846D4E70820D2E70F46D8E704259DF841
:1003E000000000F039F8F3E7742100200415014003
:1003F0000649496839B130B1416921B10021017420
:10040000022102F07FB8082070470000742100200C
:1004100030B5EFF3108172B60D4A9468012324B110
:100420000370002900D162B630BD93604FF0E02325
:10043000D3F88051074C25401560C3F88041D3F8AC
:10044000844154605A17C3F8842100220270E8E7FF
:100450005C240020FC06FFBC0B498A68002A11D0EE
:1004600000280FD1EFF3108072B60B684FF0E02236
:10047000C2F800314B68C2F8043100228A600028BB
:1004800000D162B6704700005C2400202DE9F041E5
:1004900005460878214F012606FA00F00C46386020
:1004A000086801F00BFB0021606801F0FEFA287972
:1004B0001B4901EB4010A169007F00282868C0F8A3
:1004C000241519D0607D217D2A680843C2F86C0587
:1004D00018E00021A06801F0E8FA207B86403E6029
:1004E000E06801F0EBFAD4E902122868C0F80825A8
:1004F000C0F81015BDE8F081607D227D29681043A9
:10050000C1F86C05D4E900122868C0F80C15C0F8D1
:100510001425207D0128DCD0ECE700000805005000
:10052000EC230020F0B50C4693B01F210726ADF850
:100530000010ADF80410002750B1C17849070DD55F
:100540006A4602A9FFF750FD002808D102AD02E07B
:100550000025ADF800706CB1E07810B1304613B0F2
:10056000F0BD01AA0AA92046FFF73EFD0028F6D1FA
:100570000AAA02E00022ADF80470BDF80400C3B27C
:10058000BDF80000C1B2284672DFE8E770B5054645
:1005900001461C220F48FEF74FFF0F4C0026267025
:1005A000286830B1016861604068A060201D7ADF72
:1005B00002E00948001D7BDF00280AD14FF6FF70DA
:1005C00060806670BDE87040044A00210448FFF76F
:1005D00081BE70BD6423002038210020CD2A020096
:1005E000442C020070B51E4C068800231B49E2898A
:1005F000102E15D01B4D112E1CD0122E29D0502E8E
:1006000017D130F8061F914213D14189022910D128
:100610000C3000F0D4F888B1BDE8704000F02EBA7C
:1006200084884C800469CC60406908614B70002A62
:10063000F2D070BD4FF6FF7048804B702868FFF70E
:10064000D7FE0028F5D0A1690029F2D0BDE870409E
:1006500008478268CA60C0680861DDE73821002069
:1006600064230020442C02007CB5054608880C4613
:100670000930904201D90C207CBD68466DDF00280E
:10068000FAD121880820685420881B21401C80B2A0
:10069000208029542088401C80B220802844DDF826
:1006A00001100160BDF8051081802088801D80B296
:1006B00020809DF80010490800D00121295420888D
:1006C000401C208000207CBD10B5044601F0BAFB20
:1006D0002046FFF787FF2146BDE81040014800F0A3
:1006E00063B800000C230020D0B586B014270A9C04
:1006F000ADF810708BB1002302EB420203E0CE5C38
:10070000E6545B1CDBB29A42F9D80AE0CF5C04EBFA
:10071000030C5B1C8CF80C70DBB2B3EB420FF5D30F
:100720000EB9002D16D08189A1F57F42FF3A13D072
:100730000021009101910291039101218DF8021095
:100740004188ADF8001004A9CDE9021480896946FA
:10075000A6DF80B206B0D0BD0820FBE730B5044666
:10076000104B85B04FF6FF700D46A0810FCB8DE882
:100770000F0004F10A01684663DF002810D1A07A57
:100780008DF8120041F22650ADF81000224604A95F
:100790000120A0DF002803D12946204600F020FDDB
:1007A00005B030BD482C02000A88102A05D0112A55
:1007B00002D14FF6FF71818170478988FBE700788D
:1007C00000F001007047000000B5134889B0002315
:1007D000806807905022114907A801F0F7FD08B181
:1007E000FFF76CFD6A460121002001F0D9FD08B138
:1007F000FFF764FD1720ADF81000684601F062FDB8
:1008000008B1FFF75BFD064801F052FD002801D05A
:10081000FFF754FD09B000BD2C2C0200442200203B
:10082000C9060200F8B5461C00208DF8000001251D
:100830006846FFF7EDFD1149741CD1E900208F686F
:10084000101A3B1A5B1C9C420FD963B10C480D4B2C
:100850003A4000681B6801EB820263F39F20D0607E
:100860000868401C0860002501E0901908609DF8A8
:100870000000FFF7F1FD2846F8BD000068240020C5
:10088000842C020090210020034803C8814201D13A
:100890000120704700207047682400200D2801D0F7
:1008A000FFF70CBD7047000005494FF0FF320828E4
:1008B00041F8202002D3084480F848207047000007
:1008C00094230020F0B54FF0FF3512B10023082625
:1008D00001E008230C260C4C05E000BF54F82370FF
:1008E0007F1C04D05B1CB342F8D32846F0BD261809
:1008F0005DB286F8305044F82310002AF5D1E11893
:1009000081F84800F1E700009423002002490844E0
:1009100090F93000704700009423002070B5084C17
:10092000050009D010342168002907D0086820602C
:10093000496828468847F6E70834F4E770BD0000A8
:10094000802300202DE9F05F26484168F1B3DFF8ED
:1009500098B00E688146DBF8004087688078E11B1C
:1009600021F07F45ED1CB0B9DFF880804FF4803076
:10097000C8F84403C8F804031120FEF739FE11201B
:10098000FEF74CFE4FF0010AC8F800A02F2000F03F
:1009900077FD89F802A0B54200D23546124BE8191E
:1009A0003C3320F07F401860DBF800105A46091BEA
:1009B00021F07F41001B20F07F40C91C81420FD9EC
:1009C000106818602F2000F05BFD00E004E0BDE837
:1009D000F05F1120FEF738BEBDE8F05F01F04CBBC0
:1009E000BDE8F09F64210020041501400010014083
:1009F0002DE9F04117880646B81D14460D46984269
:100A000002D90C20BDE8F0813188072206290AD3DB
:100A10004FF4486C4FF6FF73614501D9994202D1FA
:100A20007088062801D21046ECE7604501D998424B
:100A3000F9D1994203D0984201D08142F3D80520E0
:100A4000E85520881221401C80B22080295420883B
:100A5000401C80B220804119308802F032F8218891
:100A6000084480B220804119708802F02AF8218859
:100A7000084420800020C5E7FFF720BCF8B51348E4
:100A800000F062F9114D0026114C0C3D30B1616946
:100A9000B9B101208DF80000684611E0287820B136
:100AA000616971B18DF80060F6E7687858B1A168A6
:100AB000084800220068FFF757FC10B1A16901B196
:100AC00088472E70F8BD6168F2E7000044210020DD
:100AD00064230020442C02002DE9F041002601256A
:100AE000144C22E06068226900EBC607387805FAEA
:100AF00000F1114217D08A43226100F03DFE024608
:100B00003878E36805FA00F1194002FA00F39942D7
:100B100009D17978012901D0012100E0002151405B
:100B20007A6802B19047761CF6B220788642D9D313
:100B3000BDE8F081502100200E4910B50A784C78AC
:100B40000023A24212D0521CD2B20A70022A00D153
:100B50000B70084A0B78183252F82320026088681C
:100B6000104420F07F408860012010BD0360002009
:100B700010BD0000642100207CB500F0F7FE051ECA
:100B800001D0FFF79BFB032201A9072000F000FB27
:100B90001A4C9DF80400217801EB41012144487072
:100BA00021789DF8050001EB4101214488702178EE
:100BB0009DF8060001EB41012144C8702078401CDB
:100BC000C2B22270042A09D104F10D000090012361
:100BD000611C2438FFF788FD00202070002D0CD008
:100BE000082D0AD0A5F54050023806D043F2014046
:100BF000854202D02846FFF761FB7CBD23230020FD
:100C00002DE9F041124E07460125BD403068FFF73F
:100C1000EFFB00280DD10F4C2069284207D1384640
:100C200000F0AAFD0028E06805D0284304E0A843AE
:100C30002061BDE8F081A843E0602069284320617D
:100C4000A1683068BDE8F0410022FFF78DBB0000CD
:100C50005C2C020050210020F8B51C4C20780028A4
:100C600032D0E068002658B10025607800282BD1EA
:100C7000684648DF052805D030B1FFF71FFB0AE0C2
:100C80000125F2E7012606E0009800F073FC2169D7
:100C900009B1009888479DB96078002814D1608810
:100CA000ADF800006946A06861DF052803D020B1D7
:100CB000FFF704FB04E0012502E0D4E902018847C4
:100CC000002ED2D0002DE6D0F8BD000094210020E7
:100CD00070B50E460446007918494FF4A27501EB31
:100CE0004010017F2068A1B14FF4887101F0A4F891
:100CF0004FF49071206801F09FF84FF492712068D2
:100D000001F09AF82946206801F096F80C4920680D
:100D100009E04FF48E7101F07EF82946206801F059
:100D20007AF808492068C0F80413206800F04EFCE7
:100D30003146BDE8704000F02DBC0000EC230020DF
:100D40001003020080000200054940880A88904292
:100D500004D34988884201D8012070470020704799
:100D60003C2100202DE9F043264CA4F11009227803
:100D7000D9F8048099F80350404694F801C0D9F896
:100D8000086031E002EB42036168521C01EBC301D1
:100D9000A378D2B2934200D100220B78022B02D06A
:100DA000032B21D11DE003464F68194603E0B942E9
:100DB00003D00B46C969B9B1F9E7A9B18B4205D196
:100DC000C06918B9104E0125B56000260F68C969C1
:100DD000D96149B10B683B440B6005E00174C069FF
:100DE00000E000210028F9D19445CBD1C9E90106E2
:100DF00089F80350404502D00120BDE8F08300206F
:100E0000FBE7000074210020001001402DE9F041B3
:100E10002A4F0446002607F11005D7F804803EE06B
:100E200002D02046E4691DE02878696800EB4002A2
:100E3000401CC0B201EBC2012870AA78904200D1D8
:100E40002E700A784868012A2BD1027C4ABB8A6836
:100E50004260CA6882600A69C26049698161F97842
:100E600001B146604368BA68DFF854C0991A21F0AE
:100E70007F41614502D28268114406E0D11A82683E
:100E800021F07F418A4202D9511A016000E00660D8
:100E90004660012186600174C66101F015FB002CDB
:100EA000BED1287869788842BED17968414502D0A0
:100EB0000120BDE8F0810020FBE700006421002054
:100EC000FFFF7F00002001259EB0032605FA00F1F8
:100ED00011F4602F04D0810001F1A041C1F8006736
:100EE000401C2028F2D35E494FF4602008600024A3
:100EF000081D046023465B4A05212046FFF7FCF9E4
:100F000008B1FFF7DBF9584A01215848FFF7E2F929
:100F100008B1FFF7D3F901F0A9FB01F01FF9002395
:100F20001A46194618460094FEF794FC504F06E006
:100F3000384600F019FA4FA10020FEF7F1FC5720C7
:100F400000F0E2F80028F3D05FEA080001D0FFF7D4
:100F5000B5F940F2666201214C48FFF74FF908B13C
:100F6000FFF7ACF9FFF730FC9DF8080048A120F02E
:100F70000F00401C20F0F00010308DF808000B220C
:100F800002A87CDF08B1FFF799F906270094ADF8B5
:100F90000070A0200194ADF80200ADF804404FF4B9
:100FA000C870ADF8060068467ADF08B1FFF786F929
:100FB0002C4869467830FFF7D1FB08B1FFF77EF97E
:100FC000DFF8A8803821D8F804001C902548783034
:100FD000807A8DF872006846FEF747FA02208DF895
:100FE00000008DF802508DF8037038210EA8FEF72E
:100FF0003CFA1CA81390ADF848500EA96846FFF7BC
:1010000091FA08B1FFF75AF91C216846FEF72DFA4C
:101010004FF42020CDE90040801002901F48059039
:101020001F488DF80C600690ADF80E408DF810400A
:101030006846FFF7ABFA08B1FFF740F90022A42198
:10104000D8F80000FFF790F908B1FFF737F9FFF77C
:101050008DF83EDF0028FCD0FFF730F9F9E70000FB
:101060000805005094220020790B02002C2C02006D
:1010700020A107006D6178333031303220696E690C
:1010800074206661696C65642E0D0A0030210020B1
:1010900053454E534F525F4441544100C91F020013
:1010A000790A020070B5144682880E4605462088EB
:1010B000111D0144921C994201D8FE2A01D90C202D
:1010C00070BD521C32542088FF21401C80B2208009
:1010D00031542088401C80B220808119288801F07A
:1010E000F0FC2188084480B22080AA8842B1A96817
:1010F00041B13044FEF7A0F92088A9880844208037
:10110000002070BD072070BD10B51F4A40F20C6171
:10111000012411601D49400008704021092000F0A1
:101120004FF84021092000F04BF8C021022000F0C8
:1011300047F80021032000F043F80021042000F0CC
:101140003FF80021052000F03BF80021062000F0C8
:1011500037F80F21082000F033F80221092000F0B1
:101160002FF82B210A2000F02BF830210C2000F062
:1011700027F830210D2000F023F87F21102000F007
:101180001FF8204610BD0000680700504C210020C9
:10119000F7B50A4C15460E46002301226946207811
:1011A00001F0F8FA07462078012340F001002A46B2
:1011B000314601F0EFFA3840FEBD00004C2100201E
:1011C00008B501238DF8000004488DF801100222B3
:1011D0006946007801F0DEFA08BD00004C210020CD
:1011E00030B58FB00024054607949DF81C001C21E3
:1011F00020F00F00401C20F0F00010308DF81C0093
:101200009DF81D0020F00F00401C20F0F000103071
:101210008DF81D009DF81E0020F00600801C8DF842
:101220001E006846FEF721F99DF80000019440F089
:1012300012008DF8000007A8CDE904400394A87AB5
:101240008DF83A0041F22750ADF838000D949DF822
:101250003400142120F00F00401C20F0F00010306A
:101260008DF834009DF8350020F0FF008DF8350032
:101270009DF8360020F00600801C20F019008DF843
:10128000360008A8FEF7F1F80EA808900DA80990FE
:101290001420ADF82800ADF82A40ADF82C000C94CD
:1012A0002888AB1C08AA6946A2DF0FB030BDF8B58C
:1012B0000E46017814460546012901D1687830B1FF
:1012C0002088821C9A422DD8012902D006E00720EE
:1012D000F8BD69780144891C994223D8181A801EE8
:1012E00087B2ADF800702188B01C084469467DDFE4
:1012F0000028EDD12878022805D1BDF80010B942A8
:1013000001D809210AE00821012805D16878B842EE
:1013100002D8ADF8000001E0ADF80070BDF80000A3
:10132000FE2801D90C20F8BD2288401CB05420882A
:10133000401C80B2208031542088401C2080BDF8A1
:101340000010084420800020F8BD00F180400068B3
:10135000002800D00120704708B500F1804000212E
:1013600001600068009008BD00283ED01F49204A57
:10137000096800BF00BF00BF00BF00BF00BF00BFC3
:1013800000BF91422FD000BF00BF00BF00BF00BF11
:1013900000BF00BF00BF00BF00BF00BF00BF00BF55
:1013A00000BF00BF00BF00BF00BF00BF00BF00BF45
:1013B00000BF00BF00BF00BF00BF00BF00BF00BF35
:1013C00000BF00BF00BF00BF00BF00BF00BF00BF25
:1013D00000BF00BF00BF00BF00BF00BF00BF00BF15
:1013E00000BF00BF00BF401EC3D1704720220020B5
:1013F0000024F40000283ED01F49204A096800BF9D
:1014000000BF00BF00BF00BF00BF00BF00BF9142D0
:101410002FD000BF00BF00BF00BF00BF00BF00BF94
:1014200000BF00BF00BF00BF00BF00BF00BF00BFC4
:1014300000BF00BF00BF00BF00BF00BF00BF00BFB4
:1014400000BF00BF00BF00BF00BF00BF00BF00BFA4
:1014500000BF00BF00BF00BF00BF00BF00BF00BF94
:1014600000BF00BF00BF00BF00BF00BF00BF00BF84
:1014700000BF401EC3D17047202200200024F4008A
:1014800000283ED01F49204A096800BF00BF00BFA6
:1014900000BF00BF00BF00BF00BF91422FD000BF00
:1014A00000BF00BF00BF00BF00BF00BF00BF00BF44
:1014B00000BF00BF00BF00BF00BF00BF00BF00BF34
:1014C00000BF00BF00BF00BF00BF00BF00BF00BF24
:1014D00000BF00BF00BF00BF00BF00BF00BF00BF14
:1014E00000BF00BF00BF00BF00BF00BF00BF00BF04
:1014F00000BF00BF00BF00BF00BF00BF00BF401E55
:10150000C3D17047202200200024F40010B50B4CFA
:10151000207808B1852010BD0020A06060602061A7
:10152000E060062100F036F800F082FF012108B9E2
:10153000034801602170002010BD000080230020BE
:101540001805004038B500208DF800006846FEF709
:101550005FFF074C207808B9FFF7D8FFE068401C10
:10156000E0600120A0709DF80000FEF775FF38BD17
:1015700080230020002801D1FFF7D0B9704700F088
:101580001F02012191404009800000F1E020C0F8D5
:10159000801170474907090E002806DA00F00F0293
:1015A00002F1E02282F8141D03E000F1E02282F84B
:1015B000001400F01F02012191404009800000F159
:1015C000E020C0F88012C0F800117047000B40B254
:1015D0007047000010B5044600F004FD28B1204615
:1015E000BDE81040002100F073BA204600F006FD6F
:1015F00000280FD02046FFF789F9074A02EB800147
:10160000D1F8103523F00103C1F8103501218140D4
:10161000C2F8081310BD0000006000402DE9F0473B
:101620008846814600F0DEFC0124224E0028484610
:1016300018D0FFF76BF9304490F848008009032870
:1016400002D0012806D007E01B48006804FA09F41C
:10165000204201D1022100E003214846BDE8F047C5
:1016600000F036BA00F0CAFC002820D04846FFF748
:101670004DF90546114F4FF4807007EB850100EBE3
:101680008500D1F8102580B242F00102C1F8102582
:1016900000F02CFAB8F1000F09D04846FFF736F9F0
:1016A00056F82000002802D0AC40C7F80443BDE83B
:1016B000F0870000942300201005005000600040D7
:1016C0002DE9FC41DFF8A480044608EB0400002764
:1016D00090F930001346C0170E46401C01D0082771
:1016E00040E0F27819462046FFF7ECF80546401C2A
:1016F00037D0B07848B1A00000F1A040D0F8001772
:1017000021F00201C0F8001707E00021737820469D
:1017100000910A46019100F09DF9F078C0B114489B
:10172000317800EB8500D0F81025124B1A40C0F834
:1017300010254FF4F8524FF4403302EA042203EA32
:1017400001410A43D0F810150A43C0F8102509E0FA
:1017500008EB0500327810F8481F41EA8211017049
:1017600000E004273846BDE8FC81000094230020F7
:1017700000600040FFE0FCFF03490968C14011F030
:10178000010000D0012070471005005070B5144DC5
:1017900095F8540008B1082070BD0020411E2A1899
:1017A000401CC0B282F830102028F8D30024204614
:1017B000FFF77AF8641CE4B20C2CF8D30621084633
:1017C000FFF7E8FE4FF4BE7000F090F905494FF0C6
:1017D0000040C1F80403012085F85400002070BDCA
:1017E0009423002000600040034890F85400002833
:1017F00000D0012070470000942300202DE9F04123
:10180000254C064612200D46C4F80803234890F8DC
:101810002920022A18D001464FF4807891F82B1025
:10182000012A13D00222C4F80423012780F829706A
:10183000466005810022C26021B3C58290F82A105B
:10184000304600F08BFA25E0122002E0C2682AB18F
:101850000220C4F804031120BDE8F081C66085822F
:1018600061B94746384600F0BFFA0028FAD038463A
:1018700000F0C2FA2946304600F070FA0220C4F89F
:10188000040307E02946304600F068FA404600F0BD
:10189000B3FA27600020DFE7007000400C2400202E
:1018A00070B50F4A05460C4692F8290008B1112080
:1018B00070BD02EB4501087E18B912F82A0F401CD2
:1018C0001070E0790876207A48762146284600F0A4
:1018D0004DFA227AE179284600F07CFA002070BDAA
:1018E0000C2400202DE9F0411C4C054694F82800FA
:1018F00010B10820BDE8F08109B115B102E0072060
:10190000F8E7174D44F8101B164928780860091DA0
:1019100068780860E878E07601272776002060760E
:10192000A0762060104E20776FF00040C6F80803C4
:101930004FF4827000F060FAA9780720FFF72AFEC2
:101940000220C6F80403E07E10B10120C6F80403AB
:101950000448F03807600020CCE700000C24002089
:10196000582C0200F075004000700040084900202B
:1019700091F82920012A01D00820704791F82B30D6
:10198000044A01210BB111607047024A121DFAE7A7
:101990000C240020007000402DE9F041054600793C
:1019A000164F904607EB40140E46E07E10B108201B
:1019B000BDE8F081707F20772846FEF767FD5FEA7B
:1019C000080060603169216003D0317F2846FFF74D
:1019D0007FF9287907EB4010007F0028286801D0A4
:1019E000082100E00421C0F800150020E0752076F1
:1019F000A0750121E176A076DAE70000EC23002053
:101A000070B5044600791149002601EB40152068A5
:101A10002A7FC0F80065686888B1207901EB401022
:101A2000007F0028206801D0094901E008498C396D
:101A3000C0F808132068FFF7C9FDFFF7A0FD204696
:101A400000F0E8FAEE766E6070BD0000EC23002036
:101A50001003020030B541EA4201DDE9034541EAE5
:101A60008301800041EA042100F1A04041EA0541E0
:101A7000C0F8001730BD30B541EA4201DDE9034549
:101A800041EA8301800041EA042100F1A04041EADB
:101A90000541C0F8001730BD1CB5002100910B4670
:101AA00001220191FFF7E7FF1CBD1CB500220B4688
:101AB000009211460192FFF7DEFF1CBD1CB500210C
:101AC00000910B46012201911146FFF7D4FF1CBD86
:101AD000800000F5E06000F1A040026822F440328E
:101AE0000260026842EA014101607047034908B59B
:101AF0000844002101600068009008BD00600040BB
:101B000002494058012800D0002070470060004082
:101B100030B5174C054689B0207828B160788542E9
:101B200002D1002009B030BD202212496846FDF7DD
:101B300083FC0620009008200190052003900720D8
:101B400002904FF0EB7006900948001DFFF758FF18
:101B50000DB1002200E0084A05486946001DFFF764
:101B60001BFF0028DED1012020706570D9E700003E
:101B700084210020642C0200A52802000120FFF728
:101B8000C7BF00002DE9F04F87B0FEF77DFE18B10A
:101B9000002007B0BDE8F08F454ED6E9014704EAC2
:101BA000070006EB8000A146641CC5680CE000BF7E
:101BB000C5F3891000EB9550044404EA070006EBD6
:101BC0008000A146C568641CA807F1D005F0030099
:101BD0004FF0000B022805D0AA0A01A8C5F3831311
:101BE000002153E004EA070006EB800004F1010A3B
:101BF0000AEA0704C268381B80004FEA9558001DA6
:101C0000C5F38913804521D929490C3138B106EB38
:101C1000840400F0FF0CA8EB00000C3404E00C4638
:101C2000002108F0FF0C0846C0B2CDE90210CDE952
:101C3000004CD6F81444C5F3C2005946A0474045AD
:101C400011D108F103080AEB98042AE0002106EB01
:101C500084000C300090CDE901810391C5F3C200EE
:101C6000D6F81444EAE760F38F1509EA070006EB9B
:101C70008000C56016E000BF04EA070C06EB8C0C80
:101C8000491CDCF80CC040F804CB641C9942F3D327
:101C9000C5F3C2000093D6F8105401AB5946A847CB
:101CA00000B17460FEF7F0FD80F0010071E7000004
:101CB000682400202DE9F047DFF83C800446002628
:101CC00089463046D8F80870D8F80050FEF7AAFDCB
:101CD00000280ED0094800213D40406861F3820091
:101CE00064F3C50066F3891008EB850169F39F2052
:101CF000C860BDE8F087000068240020842C020042
:101D00002DE9F047DFF84C800546012792468946C9
:101D10003846D8F80860D8F80040FEF783FD002860
:101D200015D00D48002104EA06028068641C61F3A6
:101D3000820065F3C50067F3891008EB8202344026
:101D400069F39F2008EB8401D060C1F80CA0BDE8C6
:101D5000F087000068240020842C0200024A1060F2
:101D6000101D0160704700002C76004010B50A7805
:101D70004B78302402F0030204EA03131A438B78F1
:101D80004FF4E06404EA03231A43CB784FF4805401
:101D900004EA03331A430B794FF4E02404EA0343C3
:101DA0001A434B794FF4801404EA03531A438B7996
:101DB000240104EA03631A43030105481844C0F8E8
:101DC0001825CA79097AC0F81415C0F8102510BD75
:101DD00000700040030103481844C0F81425C0F8FF
:101DE000101570470070004002494058002800D08C
:101DF0000120704700700040034908B508440022E4
:101E000002600068009008BD007000404058002843
:101E100000D00120704708B5002242504058009081
:101E200008BDD0F80403084000D001207047405896
:101E3000002800D00120704708B5002242504058C9
:101E4000009008BD2DE9F0434A4F04460088B7F8DA
:101E500000C089B03B2856D019DC02285BD0464E22
:101E600000254FF48028A6F1040910281FD011285E
:101E70002FD0132875D100231A46852160467FDFB5
:101E800000286ED009B0BDE8F043FEF717BA51281C
:101E900045D0522831D0552868D0562861D137A175
:101EA0000020FDF74BFDA088132176DFE8E739A17C
:101EB0000020FDF743FDC6F80080C9F800504FF43C
:101EC0000031C9F800103560A0883880FEF784F929
:101ED000D6E733A10020FDF731FDC9F80080356059
:101EE0004FF6FF703880FEF75FF908B1FEF7E6F9AC
:101EF00009B0BDE8F043FEF739B900231A46194688
:101F00006046A9DFBCE72AA10020FDF717FDA088E5
:101F1000132176DFB4E7A088002167DFB0E7102245
:101F2000A11D04A8FDF788FA9DF81010002918D00B
:101F30009DF81800042803D0062801D0052810D1E8
:101F4000022911D05FF001008DF800004FF4C1703C
:101F5000ADF80400A0886946A8DF002801D0FEF78C
:101F6000ADF909B0BDE8F0830220EDE7A0881721A4
:101F7000ADDF85E7282100200C050050474154546F
:101F8000205365727665722054696D656F75742E85
:101F90000D0A0000436F6E6E65637465640D0A0080
:101FA000446973636F6E6E65637465640D0A000047
:101FB0004741545420436C69656E742054696D65C3
:101FC0006F75742E0D0A00000078002807D10448B0
:101FD0003B21008876DF002801D0FEF76FB97047FB
:101FE000282100200449084490F93000082801DB2A
:101FF00001207047002070479423002004490844C2
:1020000090F93000082801D2012070470020704765
:102010009423002070B502464FF0FF301168D1F8CC
:102020000C35D1F81465D1F80855D1F81045C1F830
:102030000C05C1F814051168C1F80805C1F81005B0
:102040001846FFF729FD3046FFF726FD601C02D039
:102050002046FFF721FD681C04D02846BDE87040EB
:10206000FFF71ABD70BD4FF08050D0F80C01800210
:1020700000F100507047000070B5012670044FF069
:10208000E0210025C1F88001084C4010C4F8480345
:10209000C4F8080366602F20FFF7F2F9A660044C2D
:1020A0002F20A560FFF7ECF9A57070BD001001406E
:1020B0006421002070B50546C87D0C4600284FF409
:1020C000847128460AD0FFF7A6FED5F81805627E6F
:1020D000E1688854607E401C607670BDFFF79BFE0F
:1020E000D5F8180570BD1FB501238DF800308DF8A7
:1020F00008100192D0E90012684690471FBD000009
:1021000038B505460078002824D101216868FFF71A
:1021100075FB08B1FEF7D2F80F4C6868217800888B
:1021200004EB4101000A48706868217804EB410122
:10213000007888702078401CC2B22270042A09D12D
:1021400004F1160000900023611C2438FEF7CCFA3D
:102150000020207038BD00001A2300200EB5124A5E
:1021600007CA8DE8070011490020FFF7BBFB08B143
:10217000FEF7A4F869460020FFF792FB08B1FEF7CE
:102180009DF801210A48FFF739FB08B1FEF796F8E0
:1021900007480121801CFFF731FB08B1FEF78EF8DC
:1021A0000449002008700EBD382C020001210200F5
:1021B0002A2100201A23002010B50446FDF702FF53
:1021C00040B1002C09DA04F00F0000F1E02090F893
:1021D000140D06E042F2010010BD04F1E02090F879
:1021E00000044109082914D299B1012911D0042908
:1021F0000FD005290DD00B480122816861B161091A
:1022000050F8213004F01F04A240134340F821305D
:1022100005E042F2020010BD2046FDF70AFA002058
:1022200010BD00005C2400202DE9F0410746806AC3
:1022300014468846C8B3002531E000BFB96A05EBF3
:10224000450001EB8006B088801CFE2802D90C20D6
:10225000BDE8F0812288401C08F802002088162280
:10226000401C80B2208008F800202088401C80B2EA
:10227000208000EB0801308800F023FC218808440E
:1022800080B22080B28842B1B16871B14044FDF79C
:10229000D3F82088B188084420806D1CEDB297F8EF
:1022A0002C00A842CAD80020D2E7FFE70720CFE7DA
:1022B00018B10349C860002070470E207047000025
:1022C000942100201CB5044611480190024600905C
:1022D00010A10320FFF714FD6946204660DF044685
:1022E000DDE9002082420AD015490220FFF708FDEF
:1022F000FFF7B9FE0099421A12A1022003E024B1AF
:1023000022461DA10120FFF7FBFC20461CBD00005A
:10231000282100205344483A494E464F3A73645F9F
:10232000626C655F656E61626C653A2052414D205A
:10233000535441525420617420307825780D0A009E
:10234000C42C02005344483A5741524E494E473A32
:1023500072616D2073697A652073686F756C642093
:1023600062652061646A757374656420746F2030DF
:10237000782578200D0A00005344483A4552524FC0
:10238000523A73645F626C655F656E61626C653A58
:10239000206572726F7220307825780D0A00000077
:1023A00070B50E46054614461C211046FDF75DF833
:1023B000012020800021A16121752672657205B17E
:1023C000A072002070BDFDF751BF00002DE9F04163
:1023D000074619B188074FF0000402D00720BDE876
:1023E000F081114D4FF0E0200126A9606A806B60FA
:1023F000D0F8000110F0010F03D034460020FDF7A3
:1024000002F90A49384610DF070005D014B1002050
:10241000FDF70FF93846E2E72E70FFF793F8BDE8B5
:10242000F0411620FFF7C8BE94210020C723020008
:102430000148007870470000942100202DE9F84FF2
:10244000204C00256846D4E901B6FEF775FB8046AE
:10245000FEF788FC0746A946B8F1000F25D00023F7
:10246000009ACC46606819E007680146974202D995
:10247000BA1A026014E0C1F800C0D1F80C80D21B77
:10248000C8693B448A46B8F1000F07D0F71827F017
:102490007F47C1E90178CAF81C500D460028E3D1F6
:1024A00060602846FEF7B2FC04E02846FEF7AEFC6A
:1024B00000B917B15846FEF745FA84F80390BDE815
:1024C000F88F0000642100200D4B10B5596831B120
:1024D00002680C68A24204D8A21A0A60C16158605E
:1024E00010BD0B4603E00B46C969121B21B10C68F5
:1024F0009442F8D3A41A0C600260C161D86110BD87
:10250000642100207CB5064600240D468DF800406D
:102510006846FDF77DFF01A800F008FB70B105706B
:10252000094946609DF8040048709DF80000FDF7D9
:1025300093FF1420FDF788F820467CBD04249DF805
:102540000000FDF789FFF7E7742100202DE9F04135
:102550001D4D6C68002C35D01C4800270068A96808
:10256000B846401A20F07F462068B04215D822466F
:10257000361A0744E469107C68B182F81080EB6871
:1025800033B1D2E90501984728B1FDF797FE02E083
:10259000D2E905108847002CE6D129786878814275
:1025A00006D1401CC0B26870022801D185F80180B4
:1025B00005486978183040F82170BDE8F0411420D2
:1025C000FDF742B8BDE8F081642100200415014008
:1025D0002DE9F05F2248D0F8009000210160DFF87B
:1025E00084B0DBF8008040F20D61CBF800100BF1F5
:1025F0000400076801601C4D4FF4000028604FF490
:10260000800AC5F800A00420FEF7F4FE1648083042
:102610000168090202D50168490212D40024554616
:10262000112682461048001D05600420FEF7E2FED8
:102630000D4805600420FEF7DDFEDAF80000000218
:1026400001D5012401E0761EECD2CBF800800548CC
:10265000001D07600249C1F800902046BDE8F09FC8
:10266000004500405807005008050050134940F24B
:102670000C600860091D08604FF040210020C1F87F
:102680000801C1F81C010E49162008601720091D19
:1026900008600B494FF0CC701C3108600A490948AA
:1026A0000860091D094808600749012008390860C9
:1026B0000349052008390860FFF78ABF5807005012
:1026C000084500403841004010F501401C400040E2
:1026D0002DE9F05F0D00814644F6206718D02A4AA4
:1026E0002A49012D17D0284808300860274B0120BF
:1026F000103B18604FF040240026C4F808612060A9
:10270000DFF88CA08B468046D4F8080128B109E098
:102710000020BDE8F09F0A60E8E7D4F8240108B97A
:102720007F1EF1D1C4F8086117B1D4F8240160B15B
:10273000C4F82461164C183C26600520FEF75AFEAA
:1027400005202060FFF792FFE2E7DAF800006D1E37
:10275000EDB209F8010B012D06D04DB11420FEF7A2
:1027600049FEC4F82080CFE70748CBF80000F5E722
:10277000D4F804010028FBD0C4F8046103490C39E3
:10278000C1F800800120C4E71440004014F5014066
:10279000184500402DE9F0411F46160088460546C1
:1027A0004FF0000410D0FFF713FF68B10849680824
:1027B0000860E8073A463146404602D0FFF788FFF6
:1027C00001E000F007F804462046BDE8F081000073
:1027D000884500402DE9F04144F6206571B1214E55
:1027E00010F8013B33604FF0402301279F60002425
:1027F000D3F81CC1BCF1000F03D007E00020BDE8F6
:10280000F081D3F824C1BCF1000F12D025B1D3F868
:1028100024C1BCF1000F0FD0C3F82441114D1C3D61
:102820002C600520FEF7E6FD05202860FFF71EFF5F
:10283000E4E76D1EDCD1EFE7C3F81C41491E11F03F
:10284000FF0104D010F801CBC6F800C0D0E73AB1C0
:10285000C3F80441C3F81470D3F804010028FBD076
:102860000120CCE71C45004070B50C4605464FF4EE
:102870008E71FFF7D0FAA18AA068415CA08A401C43
:10288000A082C5F81C1570BD1FB500228DF8002070
:102890008DF80810816801918275D0E900126846B0
:1028A00090471FBD0078012801D101498870704709
:1028B000842100202DE9FF470C4605464FF40071A6
:1028C000FFF7AFFA01274FF40178002618B34FF451
:1028D000927949462846FFF799FAE0B149462846D9
:1028E000FFF799FAC5F80883A07E00B96F6002204F
:1028F0008DF80000D5F88004C5F880040390E07DD1
:102900008DF80800E0680190E6752676D4E900129B
:102910006846904727E004212846FFF782FA10B363
:102920004FF484712846FFF771FAE0B1214628463A
:10293000FFF7C0FBE07D617E884214D1207E38B174
:10294000617EE268E0752069E0602676667607E0E1
:10295000A07E00B96F60C5F80883E675617EE26805
:102960002046FFF7C0FB4FF48E7841462846FFF71C
:102970004DFA88B1A08AA17D884204D2214628461A
:10298000FFF772FF08E041462846FFF744FAA17DB1
:1029900011B12046FFF778FF4FF4A2784146284650
:1029A000FFF734FA002812D041462846FFF733FAE1
:1029B000A07E00B12F60E07D002808D0E675617E22
:1029C000E26804B02046BDE8F047FFF78CBBBDE8E5
:1029D000FF872DE9FF410C464FF4927705463946B3
:1029E000FFF725FA0026C0B139462846FFF724FA3A
:1029F00002208DF80000D5F88004C5F8800403900B
:102A0000D5F83C058DF80800E0680190E67526765B
:102A1000D4E900126846904724E04FF4887739469D
:102A20002846FFF704FAE8B139462846FFF704FACA
:102A3000D5F83C05C1B2E07D884213D1207E60B15B
:102A4000E268D5F8000220F02000C5F80002207EE0
:102A5000E0752069E060267601E0E675E2682046D0
:102A6000FFF741FB4FF4A27739462846FFF7DFF91D
:102A700068B139462846FFF7DFF9E07D38B1E675E1
:102A8000D5F83C05E268C1B22046FFF72CFB4FF4B5
:102A9000907631462846FFF7CAF900280FD0314614
:102AA0002846FFF7C9F9A07D002808D0D5F84C05C5
:102AB00004B0C1B22046BDE8F041FFF7E5BEBDE875
:102AC000FF810870000A48700220704738B5154928
:102AD0004888A0F57F42FF3A23D04A78124C521C16
:102AE000D2B24A70237B93420AD3091D75DF0028B6
:102AF00017D0A169002914D001B0BDE830400847C3
:102B000000254D70217C29B13B2176DF10B1A169F0
:102B100001B188476169002903D08DF800506846EB
:102B2000884738BD38210020642300200A4A10B5A8
:102B300053789478591CC9B28C4200D10021147882
:102B40008C4201D1002010BD0170506803EB43019D
:102B500000EBC10010BD0000742100202DE9FC41F4
:102B60001646DDE90854CDE900541F46804602228E
:102B700000F00CF8002807D1CDE900543B461022A4
:102B80003146404600F002F8BDE8FC812DE9FC5FCB
:102B90000026DDE90C4B994692468E4680462788F2
:102BA000354630E0D8F80400002200EB8500694685
:102BB0000068019001A865DF002830D19DF8000071
:102BC00050451FD10EB1002100E0022122880844A7
:102BD0001118594522D846B9521C90B2208009F8E4
:102BE00000E02088401C20800126218801A801EBFC
:102BF0000902694665DF002811D120889DF8001080
:102C0000084420806D1CB8F80000A842CADC56B108
:102C10002088C01B401E80B2FF2802D90C20BDE8CE
:102C2000FC9F09F807000020F9E70000242200209B
:102C3000261500000100000700000000020000014E
:102C4000000000004423002023D1BCEA5F78231554
:102C5000DEEF121200000000010006003C240020FC
:102C600003000000FFFFFFFFFFFFFFFFFFFFFFFF6D
:102C7000FFFFFFFF00000000000000000000D60181
:102C80000601000029000000010000000100000012
:102C90000100000001000000010000000100000030
:102CA0000100000002000000303132333435363785
:102CB00038394142434445464F766572666C6F77BA
:102CC0000D0A00005344483A5741524E494E473A84
:102CD00073645F626C655F656E61626C653A20610A
:102CE00070705F72616D5F626173652073686F758C
:102CF0006C642062652061646A7573746564207415
:102D00006F20307825780D0A000000005465726D40
:102D1000696E616C00000000382D0200282100203F
:102D2000FC000000A6FF0100342E02002422002037
:102D30006C2A0000B6FF0100FFFF00000000000049
:102D40000D0003009D0802000000000000000000CC
:102D50000000000000000000000000000000000073
:102D60000000000000000000000000000000000063
:102D70000000000000000000000000000000000053
:102D80000000000000000000000000000000000043
:102D900000000000000000000020004000000000D3
:102DA000B82C02000000000000000000000000003D
:102DB00000000000000000005345474745522052E4
:102DC0005454000000000000020000000200000057
:102DD0000C2D0200802800200004000000000000EC
:102DE00000000000000000000000000000000000E3
:102DF00000000000000000000000000000000000D3
:102E00000C2D0200802C00201000000000000000AB
:102E100000000000000000000000000000000000B2
:102E200000000000000000000000000000000000A2
:042E30000090D0033B
:040000050001F40101
:00000001FF
